S015000054656D7053656E734F6E4156522E737265633A
S11300000C94B5000C94D2000C94D2000C94D20041
S11300100C94D2000C94D2000C94D2000C94D20014
S11300200C94D2000C9469010C94D2000C94D2006C
S11300300C94D2000C94D2000C94D2000C94D200F4
S11300400C94D2000C94D2000C94D4000C940201B1
S11300500C94D2000C94D2000C94D2000C94D200D4
S11300600C94D2000C94D2006E616E00696E66002E
S113007000407A10F35A00A0724E18090010A5D45B
S1130080E80000E87648170000E40B54020000CAB8
S11300909A3B000000E1F5050000809698000000FE
S11300A040420F000000A08601000000102700005D
S11300B00000E803000000006400000000000A00E3
S11300C0000000000100000000002C76D888DC67E6
S11300D04F0823DFC1DFAE59E1B1B796E5E3E4533E
S11300E0C63AE651997696E8E6C28426EB898C9B5B
S11300F062ED407C6FFCEFBC9C9F40F2BAA56FA5FB
S1130100F490055A2AF75C936B6CF9676DC11BFC7C
S1130110E0E40D47FEF520E6B500D0ED902E030097
S1130120943577050080841E080000204E0A0000E4
S113013000C80C333333330F986E12831141EF8DA3
S11301402114893BE65516CFFEE6DB18D1844B38E3
S11301501BF77C1D901DA4BBE424203284725E2214
S11301608100C9F124ECA1E53D2711241FBECFEF86
S1130170D8E0DEBFCDBF11E0A0E0B1E0EAEBF6E1EC
S113018002C005900D92A03DB107D9F722E0A0ED81
S1130190B1E001C01D92A931B207E1F70E94E80263
S11301A00C945B0B0C9400001F920F920FB60F92ED
S11301B011242F938F939F93EF93FF938091C0000B
S11301C02091C6008C71E091D201EF5FEF719091A4
S11301D0D101E91739F0E093D201F0E0EB52FE4F80
S11301E0208301C082E09091D001892B8093D001BB
S11301F0FF91EF919F918F912F910F900FBE0F90D0
S11302001F9018951F920F920FB60F9211248F937F
S11302109F93EF93FF939091D4018091D30198170A
S113022069F0E091D301EF5FEF71E093D301F0E067
S1130230EB50FE4F80818093C60005C0E1ECF0E0F6
S113024080818F7D8083FF91EF919F918F910F909B
S11302500FBE0F901F9018951092D4011092D301E5
S11302601092D2011092D10199231CF422E0209320
S1130270C00090789093C5008093C40088E980936F
S1130280C10086E08093C20008952091D4012F5FBD
S11302902F719091D3012917E1F3E22FF0E0EB5095
S11302A0FE4F80832093D401E1ECF0E080818062F2
S11302B080830895CF93DF93EC018881882331F004
S11302C021960E94450189918111FBCFDF91CF9145
S11302D008951F920F920FB60F9211248F939F933C
S11302E0AF93BF938091150290911602A0911702CB
S11302F0B09118020196A11DB11D8093150290932F
S11303001602A0931702B0931802BF91AF919F9168
S11303108F910F900FBE0F901F9018952F923F92C0
S11303204F925F926F927F928F929F92AF92BF9201
S1130330CF92DF92EF92FF920F931F93CF93DF93AD
S113034000D000D0CDB7DEB7FC013A8329839FB734
S1130350F894009115021091160220911702309121
S113036018028091B20057B39FBF322F212F102F54
S11303700027080F111D211D311D000F111F221F01
S1130380331F000F111F221F331FC12CD12C7601E4
S1130390C39404C0CC0CDD1CEE1CFF1C6A95D2F780
S11303A0812C912C54018394442319F0812C912C99
S11303B0540129803A802101612C712C28C06FB727
S11303C0F8948091150290911602A0911702B091B1
S11303D018025091B20077B36FBFBA2FA92F982F8C
S11303E08827850F911DA11DB11D880F991FAA1F74
S11303F0BB1F880F991FAA1FBB1F801B910BA20B49
S1130400B30B84159505A605B70508F0C7C0808110
S113041090E0A0E0B0E08C219D21AE21BF218815A1
S11304209905AA05BB0559F6442E512C612C712C53
S113043049815A81CA01A0E0B0E02AC05FB75C8359
S1130440F894409115025091160260911702709130
S113045018022090B20037B23C803FBE762F652F41
S1130460542F4427420D511D611D711D440F551F0A
S1130470661F771F440F551F661F771F401B510BC4
S1130480620B730B481759076A077B0708F086C08D
S1130490408150E060E070E04C215D216E217F21BD
S11304A0441555056605770549F68FB7F8944091CC
S11304B015025091160260911702709118029091E2
S11304C0B2009B8397B38FBF29803A802101612CAE
S11304D0712C29C03FB6F8948091150290911602B0
S11304E0A0911702B09118022090B200298227B27D
S11304F03FBEBA2FA92F982F88273980830D911DCD
S1130500A11DB11D880F991FAA1FBB1F880F991F1A
S1130510AA1FBB1F801B910BA20BB30B841595055F
S1130520A605B705D8F5808190E0A0E0B0E08C2165
S11305309D21AE21BF2188159905AA05BB0551F659
S11305403FB7F8948091150290911602A09117027A
S1130550B09118022091B200E7B33FBFBA2FA92F80
S1130560982F8827820F911DA11DB11D762F652F0D
S1130570542F44273B80430D511D611D711D841B65
S1130580950BA60BB70BBC01CD01660F771F881F17
S1130590991F660F771F881F991F03C060E070E0E2
S11305A0CB010F900F900F900F90DF91CF911F917F
S11305B00F91FF90EF90DF90CF90BF90AF909F90FE
S11305C08F907F906F905F904F903F902F90089501
S11305D0CF93DF93CDB7DEB7C454D1090FB6F894E7
S11305E0DEBF0FBECDBF87E690E00E942C011092C3
S11305F0B0008091B10084608093B1001092B20089
S11306008091700081608093700078949E012F5FC8
S11306103F4F7901B5E02B2E812C912C540183940A
S113062000E4302E8FE7C82E81E0D82E3FEF47EA52
S113063051E6315040405040E1F700C00000209A9C
S113064028988FEF99EFE0E081509040E040E1F787
S113065000C000002098289A24E630E040E060E0E2
S113066070E083E290E00E948E016B347105810595
S113067091050CF488C09FB7F894409115025091ED
S1130680160260911702709118028091B20027B38C
S11306909FBF762F652F542F4427480F511D611D8E
S11306A0711D440F551F661F771F440F551F661F8A
S11306B0771F28C03FB7F8948091150290911602D5
S11306C0A0911702B09118022091B200E7B33FBF86
S11306D0BA2FA92F982F8827820F911DA11DB11D14
S11306E0880F991FAA1FBB1F880F991FAA1FBB1F22
S11306F0841B950BA60BB70B88389341A105B10554
S113070008F046C01899D6CFF701222D11922A95E8
S1130710E9F70FEF1FEF712C23C06D3371058105CD
S11307209105C4F0872D869586958695F701E80F87
S1130730F11DC80187709927A501940104C0220FF7
S1130740331F441F551F8A95D2F7DA01C90120814E
S1130750822B808373940150110938E27316E9F0F7
S11307602CE830E041E060E070E083E290E00E9439
S11307708E01611571058105910579F681E391E09A
S11307800E945A0153CF80E091E00E945A014ECF5B
S11307908EE991E00E945A0149CF19814A81259638
S11307A04FAF25970B816C81842F810F800F860FAB
S11307B09D81891729F08DE591E00E945A0136CF79
S11307C070E080E090E00E94380508C020E030E04E
S11307D040E251E4C301B2010E94C6042B013C0172
S11307E020E030E040E85FE30E94C60587FFEECFDB
S11307F0602F70E080E090E00E943805A301920130
S11308000E945A0422966FAF229723967FAF2397B4
S1130810082F24969FAF249725965FAD2597652FC3
S113082070E080E090E00E94380508C020E030E0ED
S113083040E251E4C301B2010E94C6042B013C0111
S113084020E030E040E85FE30E94C60587FFEECF7A
S1130850F701232D11922A95E9F7612F70E080E0CA
S113086090E00E943805A30192010E945A049F93CC
S11308708F937F936F9324963FAD24973F930F9369
S113088023964FAD23974F9322965FAD22975F93A4
S1130890DF92CF921F923F92FF92EF920E94CD0A75
S11308A0C7010E945A010FB6F894DEBF0FBECDBF38
S11308B0BDCE5058BB27AA270E9471040C948C0506
S11308C00E947E0538F00E94850520F039F49F3F90
S11308D019F426F40C947B050EF4E095E7FB0C94D4
S11308E07505E92F0E949D0558F3BA17620773072F
S11308F08407950720F079F4A6F50C94BF050EF44F
S1130900E0950B2EBA2FA02D0B01B90190010C011B
S1130910CA01A0011124FF27591B99F0593F50F433
S1130920503E68F11A16F040A22F232F342F44278B
S1130930585FF3CF469537952795A795F040539583
S1130940C9F77EF41F16BA0B620B730B840BBAF053
S11309509150A1F0FF0FBB1F661F771F881FC2F7BE
S11309600EC0BA0F621F731F841F48F487957795D2
S11309706795B795F7959E3F08F0B0CF9395880F8C
S113098008F09927EE0F9795879508950E94DA0449
S11309900C948C050E94850558F00E947E0540F059
S11309A029F45F3F29F00C94750551110C94C0058E
S11309B00C947B050E949D0568F39923B1F355239C
S11309C091F3951B550BBB27AA276217730784075E
S11309D038F09F5F5F4F220F331F441FAA1FA9F3F4
S11309E035D00E2E3AF0E0E832D091505040E695E2
S11309F0001CCAF72BD0FE2F29D0660F771F881F43
S1130A00BB1F261737074807AB07B0E809F0BB0B35
S1130A10802DBF01FF2793585F4F3AF09E3F510549
S1130A2078F00C9475050C94C0055F3FE4F3983E90
S1130A30D4F3869577956795B795F7959F5FC9F732
S1130A40880F911D9695879597F90895E1E0660FB3
S1130A50771F881FBB1F621773078407BA0720F02C
S1130A60621B730B840BBA0BEE1F88F7E095089595
S1130A70E89409C097FB3EF4909580957095619534
S1130A807F4F8F4F9F4F9923A9F0F92F96E9BB27EA
S1130A909395F695879577956795B795F111F8CF66
S1130AA0FAF4BB0F11F460FF1BC06F5F7F4F8F4FD1
S1130AB09F4F16C0882311F096E911C0772321F0C7
S1130AC09EE8872F762F05C0662371F096E8862F5F
S1130AD070E060E02AF09A95660F771F881FDAF7B6
S1130AE0880F9695879597F9089597F99F6780E8F9
S1130AF070E060E008959FEF80EC089500240A946C
S1130B001616170618060906089500240A941216E4
S1130B101306140605060895092E0394000C11F417
S1130B20882352F0BB0F40F4BF2B11F460FF04C0C4
S1130B306F5F7F4F8F4F9F4F089557FD9058440F1D
S1130B40551F59F05F3F71F04795880F97FB991F28
S1130B5061F09F3F79F087950895121613061406E5
S1130B60551FF2CF4695F1DF08C016161706180672
S1130B70991FF1CF86957105610508940895E8944D
S1130B80BB2766277727CB0197F908950E94CB05E9
S1130B9008F48FEF0895990F0008550FAA0BE0E8A9
S1130BA0FEEF16161706E807F907C0F0121613062B
S1130BB0E407F50798F0621B730B840B950B39F46B
S1130BC00A2661F0232B242B252B21F408950A26D1
S1130BD009F4A140A6958FEF811D811D0895A0E120
S1130BE0B0E0E5EFF5E00C946C097C011B016A01AF
S1130BF0FC0117821682838181FF44C39E012F5F0B
S1130C003F4F3901F7019381F10193FD859193FFE2
S1130C1081911F01882309F431C3853239F493FD8E
S1130C20859193FF81911F01853239F4B70190E0DA
S1130C300E94910A56016501E5CF10E0512C912CD8
S1130C40FFE1F915D8F08B3279F038F4803279F07D
S1130C508332A1F4F92DF0612EC08D3261F080331E
S1130C6069F4292D21602DC0392D3260932E892DF0
S1130C708460982E2AC0E92DE86015C097FC2DC029
S1130C8020ED280F2A3088F496FE06C03AE0139F20
S1130C90200D1124122F19C08AE0589E200D112412
S1130CA0522EE92DE0629E2E10C08E3231F496FC55
S1130CB0E5C2F92DF0649F2E08C08C3621F4292D4D
S1130CC02068922E02C0883641F4F10193FD85918B
S1130CD093FF81911F018111B3CF9BEB980F933048
S1130CE020F4992D9061805E07C09BE9980F9330A2
S1130CF008F066C1992D9F7E96FF16E09F73992E8A
S1130D00853619F49064992E08C0863621F4392F5B
S1130D103068932E02C01111115097FE07C01C3386
S1130D2050F444244394410E27E00BC0183038F0AB
S1130D3027E017E005C027E09CE3492E02C0212FDD
S1130D40412C560184E0A80EB11CF601608171812A
S1130D5082819381042DA3010E94A3096C01F9816E
S1130D60FC87F0FF02C0F3FF06C091FC06C092FEB0
S1130D7006C000E205C00DE203C00BE201C000E0C2
S1130D808C858C7019F001115AC29BC297FE10C059
S1130D904C0CFC85F4FF04C08A81813309F44A9425
S1130DA0141474F528E0241578F588E0482E2CC036
S1130DB096FC2AC0812F90E08C159D059CF03CEF99
S1130DC0C3163FEFD30674F0892D8068982E0AC0AD
S1130DD0E2E0F0E0EC0FFD1FE10FF11D80818033B4
S1130DE019F411501111F4CF97FE0EC0442443940A
S1130DF0410E812F90E0C816D9062CF41C1904C0AA
S1130E004424439401C010E097FE06C01C141D0442
S1130E1034F4C601019605C085E090E002C081E08B
S1130E2090E001110196112331F0212F30E02F5F62
S1130E303F4F820F931F252D30E08217930714F440
S1130E40581A01C0512C892D897049F4552039F064
S1130E50B70180E290E00E94910A5A94F7CF0023F0
S1130E6029F0B701802F90E00E94910A93FC09C0F9
S1130E70552039F0B70180E390E00E94910A5A941A
S1130E80F7CF97FE4CC04601D7FE02C0812C912CAF
S1130E90C60188199909F301E80FF91FFE87ED8748
S1130EA0960124193109388B2F87012F10E01195F1
S1130EB0019511093FEF8316930629F4B7018EE2D9
S1130EC090E00E94910AC814D9044CF08F85988947
S1130ED08815990524F4ED85FE85818101C080E3A0
S1130EE0F1E08F1A91082D853E852F5F3F4F3E8795
S1130EF02D87801691062CF0B70190E00E94910A8C
S1130F00D9CFC814D90441F49A81963320F4953387
S1130F1019F43C8534FF81E3B70190E04EC08A8127
S1130F20813319F09C859F7E9C87B70190E00E94D5
S1130F30910A111105C094FC18C085E690E017C011
S1130F40B7018EE290E00E94910A1E5F82E001E008
S1130F50080FF301E80FF11D8081B70190E00E94B2
S1130F60910A802F0113F3CFE6CF85E490E0B70117
S1130F700E94910AD7FC06C0C114D10441F4EC8547
S1130F80E4FF05C0D194C194D1088DE201C08BE285
S1130F90B70190E00E94910A80E32AE0C216D104CE
S1130FA02CF08F5FFAE0CF1AD108F7CFB70190E0A9
S1130FB00E94910AB701C601C0960E94910A54C1C9
S1130FC0833631F0833779F0833509F056C020C079
S1130FD0560132E0A30EB11CF6018081898301E041
S1130FE010E0630112C05601F2E0AF0EB11CF6012D
S1130FF0C080D18096FE03C0612F70E002C06FEF05
S11310007FEFC6010E94860A8C01F92DFF7714C078
S1131010560122E0A20EB11CF601C080D18096FEDA
S113102003C0612F70E002C06FEF7FEFC6010E9422
S11310307B0A8C01F92DF0689F2EF3FD1AC0852DD3
S113104090E008171907A8F4B70180E290E00E9425
S1131050910A5A94F4CFF60197FC859197FE8191F9
S11310606F01B70190E00E94910A51105A94015007
S113107011090115110579F7F7C0843611F0893685
S113108061F5560197FE09C024E0A20EB11CF601D9
S113109060817181828193810AC0F2E0AF0EB11C3C
S11310A0F60160817181072E000C880B990BF92DD4
S11310B0FF769F2E97FF09C0909580957095619556
S11310C07F4F8F4F9F4FF0689F2E2AE030E0A3019F
S11310D00E94FD0AC82EC6183FC0092D853721F489
S11310E00F7E2AE030E01DC0097F8F3691F018F49E
S11310F0883559F0C3C0803719F0883711F0BEC065
S1131100006104FF09C0046007C094FE08C00660C3
S113111006C028E030E005C020E130E002C020E154
S113112032E0560107FF09C084E0A80EB11CF601A5
S1131130608171818281938108C0F2E0AF0EB11C9D
S1131140F6016081718180E090E0A3010E94FD0AB4
S1131150C82EC6180F77902E96FE0BC0092D0E7F51
S1131160C11650F494FE0AC092FC08C0092D0E7EEC
S113117005C0DC2C092D03C0DC2C01C0D12E04FFDA
S11311800DC0FE01EC0DF11D8081803311F4097E48
S113119009C002FF06C0D394D39404C0802F86787C
S11311A009F0D39403FD11C000FF06C01C2DD51413
S11311B080F4150D1D190DC0D51458F4B70180E243
S11311C090E00E94910AD394F7CFD51410F45D18DF
S11311D001C0512C04FF10C0B70180E390E00E94CD
S11311E0910A02FF17C001FD03C088E790E002C026
S11311F088E590E0B7010CC0802F867859F001FF94
S113120002C08BE201C080E207FD8DE2B70190E0ED
S11312100E94910AC11638F4B70180E390E00E945D
S1131220910A1150F7CFCA94F301EC0DF11D80819E
S1131230B70190E00E94910AC110F5CF15C0F4E007
S1131240F51560F584E0581A93FE1FC0011127C0FC
S11312502C8523FF2AC008E610E0392D3071932E27
S1131260F8018491811124C0552009F4E4CCB7011C
S113127080E290E00E94910A5A94F6CFF7018681A9
S1131280978126C08FEF9FEF23C0B70180E290E0E3
S11312900E94910A5A945110F8CFD8CF512CB7011B
S11312A0802F90E00E94910AD3CF0CE610E0D5CFB6
S11312B091108052B70190E00E94910A0F5F1F4F76
S11312C0CFCF23E0251510F483E0BDCF512CC0CF40
S11312D06096E2E10C9488092F923F924F925F92BC
S11312E06F927F928F929F92AF92BF92CF92DF9232
S11312F0EF92FF920F931F93CF93DF93CDB7DEB797
S1131300CA1BDB0B0FB6F894DEBF0FBECDBF09942A
S11313102A88398848885F846E847D848C849B8481
S1131320AA84B984C884DF80EE80FD800C811B818F
S1131330AA81B981CE0FD11D0FB6F894DEBF0FBEBE
S1131340CDBFED010895283008F027E03327DA01F6
S1131350990F311D87FD916000966105710539F47F
S113136032602E5F3D9330E32A95E1F708959F3F65
S113137030F080387105610509F03C5F3C5F3D93B6
S1131380913008F08068911DDF93CF931F930F93E2
S1131390FF92EF92192F987F9695E92F969596953F
S11313A0E90FFF27E653FF4F99273327EE24FF2445
S11313B0A701E70105900894079428F4360FE71E67
S11313C0F81E491F511D660F771F881F991F069429
S11313D0A1F70590079428F4E70EF81E491F561F3D
S11313E0C11D770F881F991F661F0694A1F70590EA
S11313F0079428F4F80E491F561FC71FD11D880FE4
S1131400991F661F771F0694A1F70590079420F48F
S1131410490F561FC71FD81F990F661F771F881FB4
S11314200694A9F784911095177041F0D695C79545
S113143057954795F794E7941A95C1F7E0E7F0E0DC
S113144068941590159135916591959105907FE279
S11314507395E118F10A430B560BC90BD009C0F779
S1131460E10CF11E431F561FC91FD01D7EF47033BB
S113147011F48A95E6CFE894015030F0080F0AF48D
S11314800027021708F4202F2395022F7A3328F01F
S113149079E37D932A95E9F710C07D932A9589F61F
S11314A0069497956795379517951794E118F10A5F
S11314B0430B560BC90BD00998F023957E91739575
S11314C07A3308F070E37C932013B8F77E9170614F
S11314D07D9330F0839571E37D9370E32A95E1F772
S11314E01124EF90FF900F911F91CF91DF919927D5
S11314F087FD90950895FC0105906150704001109E
S1131500D8F7809590958E0F9F1F0895FC01615028
S1131510704001900110D8F7809590958E0F9F1F11
S113152008950F931F93CF93DF93FB01238121FD34
S113153003C08FEF9FEF2CC022FF16C04681578156
S1131540248135814217530744F4A081B1819D0160
S11315502F5F3F4F318320838C93268137812F5F08
S11315603F4F3783268314C08B01EC01FB010084B9
S1131570F185E02D0995892BE1F6D80116968D9118
S11315809C911797019617969C938E931697CE016C
S1131590DF91CF911F910F910895AEE0B0E0E3ED9C
S11315A0FAE00C947A090D891E898F89988D26E0BA
S11315B02C831A83098397FF02C080E090E8019787
S11315C09E838D83AE01455E5F4F698D7A8DCE011A
S11315D001960E94EF054D815E8157FD0AC02F815F
S11315E03885421753070CF49A01F801E20FF31FF0
S11315F010822E96E4E00C949609FA01AA2728306A
S113160051F1203181F1E8946F936E7F6E5F7F4FCB
S11316108F4F9F4FAF4FB1E03ED0B4E03CD0670F47
S1131620781F891F9A1FA11D680F791F8A1F911D9A
S1131630A11D6A0F711D811D911DA11D20D009F4EA
S113164068943F912AE0269F11243019305D31932C
S1131650DEF6CF010895462F4770405D4193B3E015
S11316600FD0C9F7F6CF462F4F70405D4A3318F0BC
S1131670495D31FD4052419302D0A9F7EACFB4E06D
S1131680A6959795879577956795BA95C9F7009725
S11316906105710508959B01AC010A2E06945795C6
S11316A0479537952795BA95C9F7620F731F841F1D
S10D16B0951FA01D0895F894FFCFC4
S11316BA526561642044485431312074696D65640B
S11316CA206F7574206F6E20746865206669727362
S11316DA742073746570206F662073796E630A0DC3
S11316EA00526561642044485431312074696D653F
S11316FA64206F7574207768696C65207265636508
S113170A6976696E6720646174610A0D00526561C5
S113171A64204448543131207769746820666169C9
S113172A6C656420636865636B73756D0A0D005399
S113173A616D706C65204F4B3A20252E3266202A43
S113174A4320252E326620252520480A0D0052659D
S113175A61642044485431312074696D6564206F92
S113176A7574206F6E20746865207365636F6E6488
S113177A2073746570206F662073796E630A0D0096
S9030000FC
