:020000040800F2
:1000000000500020E53A0008253A0008273A000889
:10001000293A00082B3A00082D3A00080000000099
:100020000000000000000000000000002F3A00085F
:10003000313A000800000000333A0008353A000861
:100040002D3B00082D3B00082D3B00082D3B0008F0
:100050002D3B00082D3B00082D3B00082D3B0008E0
:100060002D3B00082D3B00082D3B00082D3B0008D0
:100070002D3B00082D3B00082D3B00082D3B0008C0
:100080002D3B00082D3B00082D3B00082D3B0008B0
:100090002D3B00082D3B00082D3B00082D3B0008A0
:1000A0002D3B00082D3B00082D3B00082D3B000890
:1000B0002D3B0008393A00082D3B00082D3B000875
:1000C0002D3B00082D3B00082D3B00082D3B000870
:1000D0002D3B00082D3B00082D3B00082D3B000860
:1000E0002D3B00082D3B00082D3B000800000000C0
:1000F0000000000000000000000000000000000000
:0C01000000000000000000005FF808F1A3
:1001100010B5054C237833B9044B13B10448AFF341
:1001200000800123237010BD7C0600200000000029
:10013000386A000808B5034B1BB103490348AFF305
:10014000008008BD0000000080060020386A00081A
:10015000034613F8012B002AFBD1181A0138704707
:1001600081F0004102E000BF83F0004330B54FEA68
:1001700041044FEA430594EA050F08BF90EA020FD5
:100180001FBF54EA000C55EA020C7FEA645C7FEA68
:10019000655C00F0E2804FEA5454D4EB5555B8BF8B
:1001A0006D420CDD2C4480EA020281EA030382EAFC
:1001B000000083EA010180EA020281EA0303362D8E
:1001C00088BF30BD11F0004F4FEA01314FF4801C61
:1001D0004CEA113102D0404261EB410113F0004F73
:1001E0004FEA03334CEA133302D0524263EB43032A
:1001F00094EA050F00F0A780A4F10104D5F1200EC8
:100200000DDB02FA0EFC22FA05F2801841F1000122
:1002100003FA0EF2801843FA05F359410EE0A5F1F6
:1002200020050EF1200E012A03FA0EFC28BF4CF027
:10023000020C43FA05F3C01851EBE37101F00045DD
:1002400007D54FF0000EDCF1000C7EEB00006EEBEA
:100250000101B1F5801F1BD3B1F5001F0CD3490874
:100260005FEA30004FEA3C0C04F101044FEA4452CB
:1002700012F5800F80F09A80BCF1004F08BF5FEA52
:10028000500C50F1000041EB045141EA050130BD32
:100290005FEA4C0C404141EB010111F4801FA4F1D5
:1002A0000104E9D191F0000F04BF01460020B1FA2A
:1002B00081F308BF2033A3F10B03B3F120020CDA62
:1002C0000C3208DD02F1140CC2F10C0201FA0CF040
:1002D00021FA02F10CE002F11402D8BFC2F1200CA5
:1002E00001FA02F120FA0CFCDCBF41EA0C0190405B
:1002F000E41AA2BF01EB0451294330BD6FEA0404A4
:100300001F3C1CDA0C340EDC04F11404C4F120028E
:1003100020FA04F001FA02F340EA030021FA04F3A0
:1003200045EA030130BDC4F10C04C4F1200220FAF7
:1003300002F001FA04F340EA0300294630BD21FA35
:1003400004F0294630BD94F0000F83F4801306BFFB
:1003500081F480110134013D4EE77FEA645C18BFEF
:100360007FEA655C29D094EA050F08BF90EA020F86
:1003700005D054EA000C04BF1946104630BD91EA7E
:10038000030F1EBF0021002030BD5FEA545C05D181
:100390004000494128BF41F0004130BD14F58004C0
:1003A0003CBF01F5801130BD01F0004545F0FE4134
:1003B00041F470014FF0000030BD7FEA645C1ABF69
:1003C000194610467FEA655C1CBF0B46024650EAA0
:1003D000013406BF52EA033591EA030F41F40021CC
:1003E00030BD00BF90F0000F04BF0021704730B552
:1003F0004FF4806404F132044FF000054FF0000127
:1004000050E700BF90F0000F04BF0021704730B5E7
:100410004FF4806404F1320410F0004548BF4042BC
:100420004FF000013EE700BF42004FEAE2014FEA11
:1004300031014FEA02701FBF12F07F4393F07F4FEC
:1004400081F06051704792F0000F14BF93F07F4F1E
:10045000704730B54FF4607401F0004521F0004161
:1004600020E700BF50EA010208BF704730B54FF0E7
:1004700000050AE050EA010208BF704730B511F0EC
:10048000004502D5404261EB41014FF4806404F124
:1004900032045FEA915C3FF4DCAE4FF003025FEAA6
:1004A000DC0C18BF03325FEADC0C18BF033202EB2E
:1004B000DC02C2F1200300FA03FC20FA02F001FA88
:1004C00003FE40EA0E0021FA02F11444C1E600BF27
:1004D00070B54FF0FF0C4CF4E06C1CEA11541DBFDA
:1004E0001CEA135594EA0C0F95EA0C0F00F0DEF8A5
:1004F0002C4481EA030621EA4C5123EA4C5350EA8A
:10050000013518BF52EA033541F4801143F48013DA
:1005100038D0A0FB02CE4FF00005E1FB02E506F06B
:100520000042E0FB03E54FF00006E1FB03569CF0C0
:10053000000F18BF4EF0010EA4F1FF04B6F5007FC6
:1005400064F5407404D25FEA4E0E6D4146EB060638
:1005500042EAC62141EA55514FEAC52040EA5E50C1
:100560004FEACE2EB4F1FD0C88BFBCF5E06F1ED86B
:10057000BEF1004F08BF5FEA500E50F1000041EBA2
:10058000045170BD06F0004646EA010140EA02004F
:1005900081EA0301B4EB5C04C2BFD4EB0C0541EA71
:1005A000045170BD41F480114FF0000E013C00F386
:1005B000AB8014F1360FDEBF002001F0004170BDAA
:1005C000C4F10004203C35DA0C341BDC04F11404C3
:1005D000C4F1200500FA05F320FA04F001FA05F24F
:1005E00040EA020001F0004221F0004110EBD3701C
:1005F00021FA04F642EB06015EEA430E08BF20EA48
:10060000D37070BDC4F10C04C4F1200500FA04F3EA
:1006100020FA05F001FA04F240EA020001F000417C
:1006200010EBD37041F100015EEA430E08BF20EAEF
:10063000D37070BDC4F1200500FA05F24EEA020E37
:1006400020FA04F301FA05F243EA020321FA04F066
:1006500001F0004121FA04F220EA020000EBD3701D
:100660005EEA430E08BF20EAD37070BD94F0000F1D
:100670000FD101F00046400041EB010111F4801F51
:1006800008BF013CF7D041EA060195F0000F18BF02
:10069000704703F00046520043EB030313F4801F3E
:1006A00008BF013DF7D043EA0603704794EA0C0FF8
:1006B0000CEA135518BF95EA0C0F0CD050EA41060E
:1006C00018BF52EA4306D1D181EA030101F000418B
:1006D0004FF0000070BD50EA410606BF10461946B3
:1006E00052EA430619D094EA0C0F02D150EA0136BF
:1006F00013D195EA0C0F05D152EA03361CBF104600
:1007000019460AD181EA030101F0004141F0FE419E
:1007100041F470014FF0000070BD41F0FE4141F422
:10072000780170BD70B54FF0FF0C4CF4E06C1CEA22
:1007300011541DBF1CEA135594EA0C0F95EA0C0FD7
:1007400000F0A7F8A4EB050481EA030E52EA033592
:100750004FEA013100F088804FEA03334FF08055B3
:1007600045EA131343EA12634FEA022245EA1115E0
:1007700045EA10654FEA00260EF000419D4208BF91
:10078000964244F1FD0404F5407402D25B084FEA3E
:100790003202B61A65EB03055B084FEA32024FF4EA
:1007A00080104FF4002CB6EB020E75EB030E22BF47
:1007B000B61A754640EA0C005B084FEA3202B6EB07
:1007C000020E75EB030E22BFB61A754640EA5C00B6
:1007D0005B084FEA3202B6EB020E75EB030E22BF46
:1007E000B61A754640EA9C005B084FEA3202B6EB47
:1007F000020E75EB030E22BFB61A754640EADC0006
:1008000055EA060E18D04FEA051545EA16754FEA67
:1008100006164FEAC30343EA52734FEAC2025FEA85
:100820001C1CC0D111F4801F0BD141EA00014FF014
:1008300000004FF0004CB6E711F4801F04BF0143E5
:100840000020B4F1FD0C88BFBCF5E06F3FF6AFAE01
:10085000B5EB030C04BFB6EB020C5FEA500C50F191
:10086000000041EB045170BD0EF0004E4EEA113114
:1008700014EB5C04C2BFD4EB0C0541EA045170BD1B
:1008800041F480114FF0000E013C90E645EA060E5F
:100890008DE60CEA135594EA0C0F08BF95EA0C0F8D
:1008A0003FF43BAF94EA0C0F0AD150EA01347FF4D5
:1008B00034AF95EA0C0F7FF425AF104619462CE7AC
:1008C00095EA0C0F06D152EA03353FF4FDAE10460F
:1008D000194622E750EA410618BF52EA43067FF460
:1008E000C5AE50EA41047FF40DAF52EA43057FF4F0
:1008F000EBAE12E74FF0FF3C06E000BF4FF0010CFB
:1009000002E000BF4FF0010C4DF804CD4FEA410C5E
:100910007FEA6C5C4FEA430C18BF7FEA6C5C1BD02B
:1009200001B050EA410C0CBF52EA430C91EA030FAC
:1009300002BF90EA020F0020704710F1000F91EA09
:10094000030F58BF994208BF90422CBFD8176FEAD7
:10095000E37040F0010070474FEA410C7FEA6C5CA5
:1009600002D150EA013C07D14FEA430C7FEA6C5CAC
:10097000D6D152EA033CD3D05DF8040B704700BFD8
:100980008446104662468C461946634600E000BF26
:1009900001B5FFF7B7FF002848BF10F1000F01BDF8
:1009A0004DF808EDFFF7F4FF0CBF012000205DF8C3
:1009B00008FB00BF4DF808EDFFF7EAFF34BF012048
:1009C00000205DF808FB00BF4DF808EDFFF7E0FFE1
:1009D00094BF012000205DF808FB00BF4DF808ED32
:1009E000FFF7CEFF94BF012000205DF808FB00BF99
:1009F0004DF808EDFFF7C4FF34BF012000205DF87B
:100A000008FB00BF4FEA410C7FEA6C5C02D150EA60
:100A1000013C0AD14FEA430C7FEA6C5C02D152EAF6
:100A2000033C02D14FF0000070474FF001007047C7
:100A30004FEA410212F5001215D211D56FF4787306
:100A4000B3EB625212D94FEAC12343F0004343EAA9
:100A5000505311F0004F23FA02F018BF4042704784
:100A60004FF00000704750EA013005D111F000400E
:100A700008BF6FF0004070474FF00000704700BFA4
:100A800080F0004002E000BF81F0004142001FBF43
:100A90005FEA410392EA030F7FEA226C7FEA236C4C
:100AA0006AD04FEA1262D2EB1363C1BFD218414041
:100AB00048404140B8BF5B42192B88BF704710F0D7
:100AC000004F40F4000020F07F4018BF404211F07A
:100AD000004F41F4000121F07F4118BF494292EAE2
:100AE000030F3FD0A2F1010241FA03FC10EB0C000E
:100AF000C3F1200301FA03F100F0004302D549429B
:100B000060EB4000B0F5000F13D3B0F1807F06D347
:100B100040084FEA310102F10102FE2A51D2B1F13F
:100B2000004F40EBC25008BF20F0010040EA030034
:100B30007047490040EB000010F4000FA2F10102E1
:100B4000EDD1B0FA80FCACF1080CB2EB0C0200FA6B
:100B50000CF0AABF00EBC25052421843BCBFD040B9
:100B60001843704792F0000F81F4000106BF80F433
:100B700000000132013BB5E74FEA41037FEA226CF6
:100B800018BF7FEA236C21D092EA030F04D092F0C1
:100B9000000F08BF0846704790EA010F1CBF0020F5
:100BA000704712F07F4F04D1400028BF40F0004052
:100BB000704712F100723CBF00F50000704700F072
:100BC000004343F0FE4040F4000070477FEA226299
:100BD00016BF08467FEA23630146420206BF5FEA6A
:100BE000412390EA010F40F4800070474FF000036A
:100BF00004E000BF10F0004348BF40425FEA000C31
:100C000008BF704743F0964301464FF000001CE0D8
:100C100050EA010208BF70474FF000030AE000BF2E
:100C200050EA010208BF704711F0004302D540426C
:100C300061EB41015FEA010C02BF844601460020DE
:100C400043F0B64308BFA3F18053A3F50003BCFAF9
:100C50008CF2083AA3EBC25310DB01FA02FC6344A6
:100C600000FA02FCC2F12002BCF1004F20FA02F2AD
:100C700043EB020008BF20F00100704702F12002A0
:100C800001FA02FCC2F1200250EA4C0021FA02F201
:100C900043EB020008BF20EADC7070474FF0FF0C06
:100CA0001CEAD0521EBF1CEAD15392EA0C0F93EA01
:100CB0000C0F6FD01A4480EA010C400218BF5FEAA3
:100CC00041211ED04FF0006343EA501043EA511116
:100CD000A0FB01310CF00040B1F5000F3EBF490010
:100CE00041EAD3715B0040EA010062F17F02FD2A14
:100CF0001DD8B3F1004F40EBC25008BF20F00100F7
:100D0000704790F0000F0CF0004C08BF49024CEA0D
:100D1000502040EA51207F3AC2BFD2F1FF0340EA9F
:100D2000C250704740F400004FF00003013A5DDC10
:100D300012F1190FDCBF00F000407047C2F1000251
:100D4000410021FA02F1C2F1200200FA02FC5FEA3E
:100D5000310040F1000053EA4C0308BF20EADC7088
:100D6000704792F0000F00F0004C02BF400010F4FA
:100D7000000F013AF9D040EA0C0093F0000F01F0A7
:100D8000004C02BF490011F4000F013BF9D041EAC9
:100D90000C018FE70CEAD15392EA0C0F18BF93EACB
:100DA0000C0F0AD030F0004C18BF31F0004CD8D1F5
:100DB00080EA010000F00040704790F0000F17BF7C
:100DC00090F0004F084691F0000F91F0004F14D0C2
:100DD00092EA0C0F01D142020FD193EA0C0F03D11A
:100DE0004B0218BF084608D180EA010000F000401D
:100DF00040F0FE4040F40000704740F0FE4040F4F8
:100E0000400070474FF0FF0C1CEAD0521EBF1CEA96
:100E1000D15392EA0C0F93EA0C0F69D0A2EB0302B4
:100E200080EA010C49024FEA402037D04FF080534E
:100E300043EA111143EA10130CF000408B4238BF13
:100E40005B0042F17D024FF4000C8B4224BF5B1A21
:100E500040EA0C00B3EB510F24BFA3EB510340EA6F
:100E60005C00B3EB910F24BFA3EB910340EA9C001D
:100E7000B3EBD10F24BFA3EBD10340EADC001B018D
:100E800018BF5FEA1C1CE0D1FD2A3FF650AF8B4231
:100E900040EBC25008BF20F0010070470CF0004C3E
:100EA0004CEA50207F32C2BFD2F1FF0340EAC25069
:100EB000704740F400004FF00003013A37E792F02A
:100EC000000F00F0004C02BF400010F4000F013A88
:100ED000F9D040EA0C0093F0000F01F0004C02BF83
:100EE000490011F4000F013BF9D041EA0C0195E7EC
:100EF0000CEAD15392EA0C0F08D142027FF47DAF85
:100F000093EA0C0F7FF470AF084676E793EA0C0F74
:100F100004D14B023FF44CAF08466EE730F0004C72
:100F200018BF31F0004CCAD130F000427FF45CAF02
:100F300031F000437FF43CAF5FE700BF4FF0FF3C70
:100F400006E000BF4FF0010C02E000BF4FF0010CC3
:100F50004DF804CD4FEA40024FEA41037FEA226C8C
:100F600018BF7FEA236C11D001B052EA530C18BFAE
:100F700090EA010F58BFB2EB030088BFC81738BF13
:100F80006FEAE17018BF40F0010070477FEA226C01
:100F900002D15FEA402C05D17FEA236CE4D15FEAFD
:100FA000412CE1D05DF8040B704700BF8446084631
:100FB0006146FFE70FB5FFF7C9FF002848BF10F1F2
:100FC000000F0FBD4DF808EDFFF7F4FF0CBF012037
:100FD00000205DF808FB00BF4DF808EDFFF7EAFFC1
:100FE00034BF012000205DF808FB00BF4DF808ED7C
:100FF000FFF7E0FF94BF012000205DF808FB00BF71
:101000004DF808EDFFF7D2FF94BF012000205DF8F6
:1010100008FB00BF4DF808EDFFF7C8FF34BF012003
:1010200000205DF808FB00BF42000ED2B2F1FE4F77
:101030000BD34FF09E03B3EB126209D44FEA0023A7
:1010400043F0004323FA02F070474FF0000070476E
:1010500012F1610F01D1420202D14FF0FF3070470F
:101060004FF00000704700BF53B94AB9002908BFCC
:1010700000281CBF4FF0FF314FF0FF3001F000B9E6
:10108000ADF1080C6DE904CE00F006F8DDF804E0DF
:10109000DDE9022304B070472DE9F0478C460E4687
:1010A0000446089D002B50D18A4217466CD9B2FAEB
:1010B00082FEBEF1000F0BD0CEF1200C01FA0EF62D
:1010C00020FA0CFC02FA0EF74CEA060C00FA0EF4B9
:1010D0003A0CBCFBF2F9BBB202FB19CC09FB03FAD8
:1010E0004FEA144848EA0C46B2450AD9F61909F104
:1010F000FF3180F02581B24540F22281A9F1020939
:101100003E44A6EB0A06B6FBF2F002FB106600FBBB
:1011100003F3A4B244EA0644A34209D9E41900F156
:10112000FF3280F00B81A34240F2088102383C4438
:101130000021E41A40EA0940002D62D0002324FA7D
:101140000EF42C606B60BDE8F0878B4207D9002D50
:1011500055D0002185E841000846BDE8F087B3FA84
:1011600083F1002940F08F80B34202D3824200F223
:10117000FC80841A66EB03060120B446002D40D0A3
:1011800085E81010BDE8F08712B90127B7FBF2F728
:10119000B7FA87FEBEF1000F35D10121F61B4FEAE9
:1011A000174C1FFA87F8B6FBFCF20CFB126608FB23
:1011B00002F0230C43EA0646B04207D9F61902F1C1
:1011C000FF3302D2B04200F2D2801A46361AB6FB82
:1011D000FCF00CFB106608FB00F8A3B243EA0644DF
:1011E000A04507D9E41900F1FF3302D2A04500F26F
:1011F000B9801846A4EB080440EA02409CE729465F
:101200002846BDE8F08707FA0EF7CEF1200326FA4C
:1012100003F24FEA174CB2FBFCF11FFA87F80CFB04
:10122000112206FA0EF620FA03F301FB08F9334304
:101230001E0C46EA0246B14500FA0EF409D9F61929
:1012400001F1FF3280F08C80B14540F28980023993
:101250003E44A6EB0906B6FBFCF00CFB106200FB5B
:1012600008F99EB246EA0246B14507D9F61900F1DF
:10127000FF3371D2B1456FD902383E44A6EB09065F
:1012800040EA01418FE7C1F1200722FA07F88B40BD
:1012900048EA030326FA07F44FEA134EB4FBFEF9BB
:1012A0001FFA83FC0EFB19448E4020FA07F809FB55
:1012B0000CFA48EA06084FEA184646EA0444A245F2
:1012C00002FA01F200FA01F608D9E41809F1FF3038
:1012D00044D2A24542D9A9F102091C44A4EB0A0454
:1012E000B4FBFEF00EFB104400FB0CFC1FFA88F868
:1012F00048EA0444A44507D9E41800F1FF3E29D286
:10130000A44527D902381C4440EA0940A0FB0289C1
:10131000A4EB0C0CCC45C246CE4615D312D055B129
:10132000B6EB0A036CEB0E0606FA07F7CB401F4339
:10133000CE402F606E600021BDE8F0871046F7E6D2
:101340008946DEE64645EAD2B8EB020A69EB030EAF
:101350000138E4E77046D7E718468FE78146BDE7D6
:10136000114676E702383C4444E7084606E7023A6D
:101370003E442BE703685A004CBF43F0004323F080
:1013800000431844704700BF61B32DE9F84F01F1E5
:10139000FF3A90460646D146002707EB090404EBC6
:1013A000D4746410E50071190846FFF7E3FFA24505
:1013B000834605F10800304409D0FFF7DBFFC34541
:1013C00000F1FF3005D8404509D2671CE5E7C34569
:1013D00005D9A74202D004F1FF39DEE70021084613
:1013E000BDE8F88F08467047012807D0022807D0CB
:1013F000044B00280CBF1846002070470248704775
:1014000002487047F91A0008FD1A0008011B00087D
:1014100030B5254B83B004468D1E73B301A9284611
:10142000AFF3008018B301992A46FFF7ADFF0146DC
:10143000E8B1FFF79FFF4B68A064012B11D0002B90
:1014400022DB081DFFF796FF0023E0642365036895
:10145000002B1EDBFFF78EFF00232061184603B030
:1014600030BD052300221846226103B030BD092398
:1014700000221846226103B030BD0C4B0C491846BF
:10148000C91AC9100191CFE70123081DE064236543
:10149000DDE7C3F30360FFF7A7FF0028206114BF57
:1014A00000230923DAE700BF00000000546E0008A3
:1014B0005C6F0008036810B5DA07044606D49B0782
:1014C00000F1480009D500F057FC2368590709D5F9
:1014D0001A070ED5DB0613D510BD00F045FC2368B6
:1014E0005907F5D404F1D00000F04EFC23681A0728
:1014F000F0D404F5A87000F04FFC2368DB06EBD4B1
:1015000004F5E870BDE8104000F08ABC036803B140
:1015100003441846704700BF09207047704700BF5A
:1015200070B504460D4608E02A6C236962612146C5
:101530002A4601209847082808D1296C2046FFF741
:1015400067FF06460028EFD005F02BFA0728FBD1ED
:101550003046296CFFF7E2FF281D00F0F9FB00BFC1
:101560002DE9F04705460027ADF5727D03AC0E1D51
:1015700092460FCE0FC40FCE0FC40FCE0FC496E805
:101580000F00D5F80C80D5F8189084E80F0002AC55
:101590002846216C2760FFF73BFFBAF1000F074692
:1015A00014BF0A2609267FB1A36B46F010018DE80F
:1015B00010022A46636401202B46C04778BB384698
:1015C0000DF5727DBDE8F087236C4FF4F0726B610E
:1015D00021467AA804F074FB2B697AAA2946304682
:1015E0009847889B82468DE81002314663642A46FC
:1015F0002B460120C04790B94FF4F0727AA92046DB
:1016000004F05EFBBAF1080F06D1216C2846FFF703
:10161000FFFE09260746C6E7BAF1070F05D00927DE
:1016200038460DF5727DBDE8F0873846216CFFF72E
:1016300075FF03A800F08CFB406C7047F0B54FF0CD
:10164000FF3ECB6BF9B00B640E1D01AD0F46044697
:101650000FCE0FC50FCE0FC50FCE0FC596E80F00EA
:1016600085E80F00CDF800E006E023696A462146D0
:1016700098470828054608D110992046FFF7C8FE6C
:101680000028F2D0092079B0F0BD6846FFF712FFBC
:10169000062DF7D139462046FFF742FF30B4DD6B07
:1016A000C160826119461D64002230BC58E700BF4A
:1016B00070B54369C6680B6426B10122FFF750FF7D
:1016C00005F06FF903690A4604460D4601460220FB
:1016D0009847072807D0082803D129462046FFF756
:1016E0001FFF05F05EF93046296CFFF717FF281D34
:1016F00000F02EFBC2682AB110B4CC6B00220C643F
:1017000010BC2DE79AE700BF704700BF836813B194
:10171000014601201847704700B5042907D8DFE8C3
:1017200001F00309060909000BB90F2A05D90220A7
:101730005DF804FB01205DF804FB00EB82025268B7
:101740001846019B1A605DF804FB00BF002310B52A
:1017500084B003AC0A4600941946FFF7DDFF0398F6
:1017600004B010BD00B5042907D8DFE801F0030973
:10177000060909000BB90F2A05D902205DF804FB00
:1017800001205DF804FB019900EB8202096818460C
:1017900051605DF804FB00BF002310B584B004ACB9
:1017A00044F8042D00940A461946FFF7DBFF04B005
:1017B00010BD00BFF0B54FF0FF3ED36BADF50F7D10
:1017C0001364151D17AC07460E460FCD0FC40FCD81
:1017D0000FC40FCD0FC495E80F0084E80F00CDF8BB
:1017E00058E012E00C2116A86A46FFF7D5FF3146F3
:1017F00016A8B84778B9049B16AA694608209847E6
:101800000528044608D0092805D026996846FFF720
:10181000FFFD0028E6D0092416A8FFF74BFE20465E
:101820000DF50F7DF0BD00BF2DE9F04FCC6C91465A
:1018300022688BB004340D460792089400F0030B25
:101840001E46002B60D10323120207928DF82560FB
:101850008DF824302B6DBBF1020F08BFAC6B13F079
:10186000010340D1019300F008030393D4F80080F2
:10187000B8F1000F39D0022E43D0B4F80080678849
:101880000434AB6C27F0010A0F2148469A44FFF755
:101890005DFF824533D828F001039A4450452CBFA0
:1018A000002001207F0007F0020708F0010847EA46
:1018B0000807012F3ED035D3022F1CD1236823F017
:1018C00000420292BBF1000F76D128B103990029A2
:1018D0007ED0002A00F0A680002B77DB029B01332C
:1018E00004EB8304C2E700230193022E3EDDFFF7E1
:1018F00013FE002840D009200BB0BDE8F08F002077
:10190000D0E767680834BCE7022BA3DC0221130C84
:101910008DF825301204DBB204EB830407928DF8B6
:10192000241097E7BBF1000F02D0002840F0BD80E3
:1019300004349BE7BBF1000F25D1A8B194E80C005B
:10194000991C4FEAD272D6D005F1580101330691A5
:1019500000F0A380201DFFF7D9FD06AB0146284605
:10196000AFF30080002877D108347FE707A9484605
:1019700000F0F0FA0028BED1019B002B5CD10820BA
:101980000BB0BDE8F08F0D2148462F6AFFF7DEFE51
:101990008742E9D1AB6A9C42E6D12046FFF7EAFCD8
:1019A0000F2102464846FFF7F7FE48462A46002127
:1019B000FFF7F2FE07209FE70D2148462F6AFFF749
:1019C000C5FE874258D02368002B87DA043485E7A8
:1019D000029B3BB305F15803271DCDF810B0DDF88D
:1019E0000C80A346DDF808A01C46059602E0B2452F
:1019F000B04616D038460694FFF788FD06AB014680
:101A000000222846AFF3008008F1010604370028C1
:101A1000EDD0029B5C464345DDF810B0059ED2D167
:101A200000E05C4648460D21FFF790FE069B2862C9
:101A3000AC626B6206205FE70F214846FFF786FE27
:101A40000E2102464846FFF7A7FE4846294A0F21C5
:101A5000FFF7A2FE07204FE707460D214846FFF794
:101A600075FE022F28621DD12B46069A43F82C2FB3
:101A70006B62AC6206203FE7AB6A9C42A3D10422B2
:101A800000270299A318A962EF622A636B63236897
:101A9000BB421DDB0123019320E748460D21FFF7E0
:101AA00055FE2862069B6B62E3E72046FFF762FC67
:101AB00004340646AC632846AFF3008000283FF4A8
:101AC0001AAF484632460F21FFF766FE072013E79C
:101AD0000846013004EB8000FFF74CFC0F21024662
:101AE0004846FFF759FE48462A463946FFF754FE56
:101AF000072001E700000000002395E6012393E69C
:101B0000022391E6F0B50446C5B004290DD8DFE8FC
:101B100001F055030C310F00012B4FEA124695B22C
:101B200064D17219102A40F29D80022045B0F0BDA8
:101B3000002BFAD1102AF8D82368D80600F1C88003
:101B400022AE30460192012500F074F90023A06B0B
:101B5000019A05FA03F1114203D00168043046F8F6
:101B600023100133042BF4D1A063304600F058F960
:101B70000020DBE7032BD8D1150C97B2EB19102B03
:101B8000D3D823681E0700F1B78022AE304600F09C
:101B900025F9ED00A06B5FB1043D0346711900EB20
:101BA000C70053F8042B834241F8042FF9D118469B
:101BB000A063304600F0F0F80020B7E7002BB4D166
:101BC0000127A56B96B2201D07FA03F1314203F1FC
:101BD000010302D0296804350160102B00F10400D4
:101BE000F2D112F400503BD1A5639FE7052B9CD1A5
:101BF0007719202F99D80F2E66D92F46002D3AD16C
:101C00002A460027002AA06B72DD00EBC2020146C3
:101C100044A800EBC6008C3851F8045B914240F8B0
:101C2000045FF9D1084697B1102E324638BF102212
:101C300044A901EBC202A2F5C4727900043A00EB98
:101C4000810150F8045B884242F8045FF9D1012B0E
:101C500048D00F2EA16333D917B102A800F094F831
:101C6000002063E70F2E3FF660AF00272268D10700
:101C700017D4002F60D02268510745D4012B4DD0D6
:101C80000F2E06D822A8019300F07AF8019B002FAE
:101C9000B6D002A8019300F07BF8019BC6F11002B8
:101CA000B0E722F00101052B2160019320463BD0D3
:101CB00022F0030240F8482B00F05AF8019BD8E7C5
:101CC00022A800F059F8C7E7102FCED9103FCDE772
:101CD00023F01003236004F5E870019200F0AAF8E5
:101CE000019A2DE70431A16322A800F03DF8B7E77F
:101CF000002F99D10146AAE723F00803236004F5D9
:101D0000A87000F06BF840E7204622F0040240F88B
:101D1000D02B019300F03CF8019BAFE722A8019380
:101D200000F026F8019BB9E741F0020140F8481B9A
:101D300000F026F8019B9CE7012B03D00F2E3FF605
:101D40005FAF9FE722A8019300F012F8019B57E7CD
:101D500000F1340191E838009C46A6464CF8045D39
:101D600090E8FF0FE54600BD90EC210B704700BFE7
:101D700080EC210B704700BF90EC200B704700BF38
:101D800080EC200B704700BFD0EC200B704700BFE9
:101D9000C0EC200B704700BFF0EC0201F0EC021128
:101DA000F0EC0221F0EC0231F0EC0241F0EC0251D7
:101DB000F0EC0261F0EC0271F0EC0281F0EC0291C7
:101DC000F0EC02A1F0EC02B1F0EC02C1F0EC02D1B7
:101DD000F0EC02E1F0EC02F1704700BFE0EC020130
:101DE000E0EC0211E0EC0221E0EC0231E0EC024117
:101DF000E0EC0251E0EC0261E0EC0271E0EC028107
:101E0000E0EC0291E0EC02A1E0EC02B1E0EC02C1F6
:101E1000E0EC02D1E0EC02E1E0EC02F1704700BF3F
:101E2000B0FC0181B0FC0191B0FC01A1B0FC01B19A
:101E3000704700BFA0FC0181A0FC0191A0FC01A1A2
:101E4000A0FC01B1704700BFEC4600B52DE9005081
:101E50002DE9FF1F4FF000032DE90C0001A9FFF74A
:101E6000EDFBDDF840E012B0704700BFEC4600B576
:101E70002DE900502DE9FF1F4FF000032DE90C0064
:101E800001A9FFF715FCDDF840E012B0704700BF74
:101E9000EC4600B52DE900502DE9FF1F4FF000037F
:101EA0002DE90C0001A9FFF725FCDDF840E012B098
:101EB000704700BFEC4600B52DE900502DE9FF1F2B
:101EC0004FF000032DE90C0001ABFFF7E7FBDDF855
:101ED00040E012B0704700BFEC4600B52DE900505D
:101EE0002DE9FF1F4FF000032DE90C0001AAFFF7B9
:101EF00061FCDDF840E012B0704700BF027A1AB909
:101F0000437A43B9B02070470368013A02721A025B
:101F10000260180E704703214268013B10B44372FF
:101F20001368141D01721A024460026010BC180E7E
:101F3000704700BF002300B585B003AA0092194680
:101F40000C22FFF7E9FB039805B05DF804FB00BF26
:101F5000F0E700BF2DE9F04306460F464FF00008BA
:101F600085B03846FFF7CAFFB028044623D00506DF
:101F700027D400230DF10C09194685000D22CDF858
:101F800000903046FFF7C8FBEDB2039B600605F1F9
:101F900004054CBF5D1BED1800230D221946CDF83A
:101FA000009030460395FFF7DDFB3846FFF7A6FFAC
:101FB000B0280446DBD1B8F1000F00F09480002077
:101FC0001CE000F0F003802B5CD0902B19D0A02BEC
:101FD0002CD0B02B3ED0C02B6BD000F0F803D02B10
:101FE0000BD100F00702013242F400220523012147
:101FF0003046FFF787FD0028B3D0092005B0BDE8C3
:10200000F08300F00D030D2BF7D0002303AD00F09B
:102010000F02194600953046FFF77EFB002300951E
:1020200019460D223046FFF79DFB9AE7C3434FF454
:102030007F6203F007031A410023010702F47F6265
:1020400048BF42F4804219463046FFF75BFD002846
:10205000D3D186E7B12857D0B22868D0B32800F092
:10206000958000F0FC03B42BC7D0012300F00702D9
:102070001A4442F4002219463046FFF743FD002877
:10208000BBD16EE73846FFF739FF24020443B4F5AD
:10209000004FB2D000232401A2B219463046FFF708
:1020A00031FD0028A9D114F4004F18BF4FF00108EA
:1020B00057E7C6287DD0C72800F0868000F0F803D7
:1020C000C02B00F09480C82800F09F80C92894D1CC
:1020D0003846FFF713FF020300F00F0002F47022EE
:1020E0000130024382E703AC43460E22414600948E
:1020F0003046FFF711FB0094304643460F2241461D
:10210000FFF730FB404679E73846FFF7F7FE002837
:102110003FF473AF10F0F0037FF46FAF024619463F
:102120003046FFF7EFFC00287FF467AF19E7002384
:102130000DF10C090D221946CDF800903046FFF73D
:10214000EBFA3846FFF7DAFE02064FF002040CD530
:10215000039B00F07F00A040034438460393FFF741
:10216000CDFE030604F10704F2D40023039900F026
:102170007F02A24001F501718C18CDF8009019463C
:102180000D2230460394FFF7EDFAEAE63846FFF7F2
:10219000B5FE0123010300F00F0001F47021C21805
:1021A0000A4330461946FFF7ADFC00287FF425AFFF
:1021B000D7E63846FFF7A2FE010300F00F00032325
:1021C00001F47021421CEBE73846FFF797FE002828
:1021D0003FF413AF10F0F0037FF40FAF0246042179
:1021E0003046FFF78FFC00287FF407AFB9E60323E2
:1021F00000F00F02013242F4202219463046FFF768
:1022000081FC00287FF4F9AEABE63846FFF776FE96
:1022100000F0F00200F00F031032013343EA023203
:10222000E4E600BF30B503240D46C36C85B05A68A0
:102230008DF80C40DC791202083301A9284601927E
:102240008DF80D400293FFF785FE05B030BD00BF4D
:1022500008B5FFF77DFE806C08BD00BF08B5FFF72D
:1022600077FEC06CC37900EB8300083008BD00BF67
:1022700008B504F096FB00BF08B5FFF7F9FF00BFF3
:10228000704700BF38B50E4B054618784FF47A7387
:10229000B3FBF0F30B4A1068B0FBF3F000F09EF8CC
:1022A000044658B90F2D09D8024629464FF0FF3091
:1022B00000F054F8044B20461D6038BD012038BDA5
:1022C000000000200800002004000020074A08B594
:1022D0001368032043F01003136000F02DF8002072
:1022E000FFF7D0FF01F022FB002008BD00200240D4
:1022F000034A044B11681B780B441360704700BFFE
:102300005407002000000020014B1868704700BFF0
:102310005407002038B50446FFF7F6FF0546631C56
:102320001EBF044B1B78E418FFF7EEFF401B8442EE
:10233000FAD838BD00000020074A0002D36800F434
:10234000E06023F4E0631B041B0C43F0BF6343F421
:1023500000330343D360704700ED00E0174B30B506
:10236000DC68C4F30224C4F10703251D042B28BF35
:102370000423062D4FF0010598BF002405FA03F34E
:1023800003F1FF3388BF033C1940A14005FA04F470
:10239000013C2240002842EA01024FEA0212AFBF8C
:1023A00000F16040064B00F00F00D2B2A5BFD2B2E0
:1023B00000F561401A5480F8002330BD00ED00E0C4
:1023C00014ED00E00123420900F01F0003FA00F0C1
:1023D000014B43F82200704700E100E00138B0F102
:1023E000807F0AD2F021064B064A586082F82310FB
:1023F0000020072298601A6070470120704700BFD4
:1024000010E000E000ED00E02DE9F74F0022164655
:10241000654BDFF8A4E1DFF8A4C14FF001080C68B8
:1024200008FA06F808EA0404A0457FD14D68122D89
:1024300000F0AF8000F28880022D00F0A7807CD8E9
:10244000002D00F08E80012D00F09E804FF00F09CE
:10245000FF2C93BF824606F18045083DD0F800B0BE
:1024600092BFB500D0F804B0AD0009FA05F82BEA28
:10247000080802FA05F588BF00F1040A48EA0505D4
:10248000CAF80050D1F804A01AF0805F4ED0474D32
:10249000464FAD6926F0030845F00105BD61BD69F1
:1024A00008F1804805F00105019508F5803806F02F
:1024B000030B019D4FEA8B0BD8F8085009FA0BF972
:1024C00025EA09093A4DA84268D005F58065A84279
:1024D00066D005F58065A84264D005F58065A84200
:1024E0000CBF0325042505FA0BF545EA0905C8F8D4
:1024F00008501D681AF4803F14BF2543A5431D6092
:102500005D681AF4003F14BF2543A5435D609D68D4
:102510001AF4801F14BF2543A5439D60DD681AF49B
:10252000001F14BF2C4325EA0404DC600136102E82
:102530007FF473AF03B0BDE8F08F032D22D0112DCF
:1025400084D1CA68043281E71A4FBD4209D012D83B
:10255000DFF86C904D4504D009F580394D457FF486
:1025600075AF8A68C2B1012A0CBFC0F81080C0F8EC
:10257000148008226AE77545F3D06545F1D0DFF88D
:102580004490EBE7002261E7CA685FE7CA68083257
:102590005CE7CA680C3259E7042257E70025A2E736
:1025A0000125A0E702259EE700040140001002403B
:1025B000000801400000211000003110000032101E
:1025C00000001110000022108368194214BF01207E
:1025D000002070470AB1016170470904FBE7000061
:1025E00003682DE9F341DB07054610D42B689F07EC
:1025F0005ED42B68190700F195802B685A0700F10B
:10260000BF80EA69002A40F02D81002014E0904C40
:10261000636803F00C03042B07D0636803F00C031A
:10262000082B0CD16368DE0309D523689C03DDD534
:102630006B68002BDAD1012002B0BDE8F0816B6835
:10264000B3F5803F10D1236843F480332360FFF754
:102650005BFE064623689803C8D4FFF755FE801B2F
:102660006428F7D90320E7E79BB9236823F4803374
:102670002360236823F480232360FFF745FE06468A
:1026800023689903B2D5FFF73FFE801B6428F7D972
:10269000E8E7B3F5A02F236803D143F48023236038
:1026A000D1E723F480332360236823F48023CDE72C
:1026B000674C636813F00C0F07D0636803F00C03DA
:1026C000082B10D16368DA030DD423689B0702D569
:1026D0002B69012BAFD123686A6923F0F80343EA21
:1026E000C203236085E72A695A4B6AB101221A6046
:1026F000FFF70AFE064623689F07ECD4FFF704FEA7
:10270000801B0228F7D9ADE71A60FFF7FDFD0646EA
:10271000236898077FF56DAFFFF7F6FD801B022851
:10272000F6D99FE7AA694A4C4B4BDAB101221A60ED
:10273000FFF7EAFD0646636A9B070DD54FF4FA5290
:10274000464B1B68B3FBF2F3019300BF019B5A1E7B
:102750000192002BF9D150E7FFF7D6FD801B02282C
:10276000E9D97FE71A60FFF7CFFD0646636A9F0746
:102770007FF543AFFFF7C8FD801B0228F6D971E74C
:10278000334CE369D80024D40127E36943F0805334
:10279000E361E36903F080530093009B304E33689C
:1027A000D90518D5EB68012B26D1236A43F0010324
:1027B0002362FFF7A9FD41F288368046236A9B0712
:1027C0003FD5002F3FF41DAFE36923F08053E36151
:1027D00017E70027E2E7336843F480733360FFF7BD
:1027E00093FD80463368DA05DCD4FFF78DFDA0EB5E
:1027F00008006428F6D935E7ABB9236A41F2883876
:1028000023F001032362236A23F004032362FFF70A
:102810007BFD0646236A9807D3D5FFF775FD801B1D
:102820004045F7D91EE7052B236A03D143F0040383
:102830002362BAE723F001032362236A23F004032F
:10284000B6E7FFF761FDA0EB0800B042B6D909E793
:102850000010024000004242800442420800002072
:1028600000700040224C636803F00C03082B3FF417
:10287000E2AE00231F4E022A33602BD1FFF744FD46
:102880000746236899011FD42B6AB3F5803F05D111
:102890006268A96822F400320A436260696A626869
:1028A0000B4322F474121343636001233360FFF778
:1028B0002BFD054623689A013FF5A7AEFFF724FDDF
:1028C000401B0228F6D9CDE6FFF71EFDC01B0228EB
:1028D000D7D9C7E6FFF718FD054623689B017FF5AA
:1028E00094AEFFF711FD401B0228F6D9BAE600BFEF
:1028F000001002406000424230B5194B87B002AC74
:1029000003F11005224618685968083303C2AB4228
:102910001446F7D101238DF80430022311498DF8B4
:1029200005304B6803F00C02082A17D1C3F3834229
:1029300006A80244DB0312F8102C0CD54B680A4899
:10294000C3F34043504306AA134413F8143CB0FBAE
:10295000F3F007B030BD05485043FAE70248F8E706
:10296000506A00080010024000127A0000093D0081
:10297000544A2DE9F0411368054603F007038B42E2
:102980000E462AD329688C0734D4CA0747D44D4A47
:10299000136803F007039E42C0F082802A684A4C05
:1029A00012F0040F40F08780130706D563682A6988
:1029B00023F4605343EAC2036360FFF79DFF63683B
:1029C000424AC3F30313D35CD840414B1860002044
:1029D000FFF758FC0020BDE8F081136823F00703DF
:1029E0000B431360136803F007039942CAD0012018
:1029F000BDE8F081344B11F0040F1EBF5A6842F459
:102A0000E0625A60080742BF5A6842F460525A6056
:102A10005A68A86822F0F00202435A60B5E76A6873
:102A2000294C012A23681CD113F4003FDFD06368CE
:102A300041F2883823F0030313436360FFF764FC1B
:102A40006B680746012B14D1636803F00C03042B59
:102A50009DD0FFF759FCC01B4045F5D90320BDE8C8
:102A6000F081022A02D113F0007FDFE713F0020F9A
:102A7000DCE7022B0FD1636803F00C03082B86D030
:102A8000FFF742FCC01B4045F5D9E7E7FFF73CFCE8
:102A9000C01B4045E2D8636813F00C0FF6D176E70F
:102AA000136823F0070333431360136803F007032D
:102AB0009E429CD172E76368E96823F4E0630B43AC
:102AC000636071E70020024000100240606B000864
:102AD00008000020044B054A5B68C3F30223D35C63
:102AE000034A1068D840704700100240706B00081D
:102AF00008000020044B054A5B68C3F3C223D35C83
:102B0000034A1068D840704700100240706B0008FC
:102B10000800002003680020DA6842F00102DA6051
:102B20001A6842F001021A60704790F83C3070B5A4
:102B3000012B4FF002031CD0012280F83D300368C6
:102B400080F83C209A6822F47F4222F077029A6053
:102B50000A68402A79D019D8102A00F093800AD840
:102B6000002A00F08980012380F83D30002380F89E
:102B70003C30184670BD202A00F08A80302AF2D1FD
:102B80009A6822F0700242F0370236E0702A36D09E
:102B90001BD8502A42D0602AE5D11C6A4D6824F027
:102BA0001004CE681C6299691A6A21F4704122F0FF
:102BB000A00242EA051241EA063199611A629A6856
:102BC00022F0700242F0670217E0B2F5805F11D088
:102BD000B2F5005FC7D18A684D689C68C9682A430E
:102BE00024F47F4442EA012222439A609A6842F424
:102BF000804202E09A6822F007029A60B3E78A688E
:102C00004D689C68C9682A4324F47F4442EA012243
:102C100022439A609A6842F07702EEE74C68CE68E9
:102C2000196A1D6A21F00A0125F001051D629A69E1
:102C3000214322F0F00242EA06129A6119629A6870
:102C400022F0700242F05702D7E74C68CE68196A4A
:102C50001D6A21F00A0125F001051D629A692143D0
:102C600022F0F00242EA06129A6119629A6822F092
:102C7000700242F04702C0E79A6822F0700242F008
:102C80000702BAE79A6822F0700242F01702B4E72E
:102C90009A6822F0700242F02702AEE77047704750
:102CA00070477047036810B51A69044691070ED53E
:102CB000DA6892070BD56FF002021A6101229B6954
:102CC00002779B0777D0FFF7EAFF0023237723687B
:102CD0001A69500710D5DA6851070DD56FF0040254
:102CE0001A6102229B69227713F4407F204668D044
:102CF000FFF7D5FF0023237723681A6912070FD542
:102D0000DA6810070CD56FF008021A610422DB693B
:102D10002277990720465AD0FFF7C1FF0023237777
:102D200023681A69D20610D5DA68D0060DD56FF07F
:102D300010021A610822DB69227713F4407F2046D3
:102D40004BD0FFF7ACFF0023237723681A69D10724
:102D500008D5DA68D20705D56FF0010220461A615E
:102D600000F034FA23681A69100608D5DA681106EB
:102D700005D56FF0800220461A6100F0AAF823689A
:102D80001A69520608D5DA68500605D56FF0400278
:102D900020461A61FFF785FF23681A69910622D53C
:102DA000DA6892061FD56FF020022046BDE8104079
:102DB0001A6100F08DB8FFF771FF2046FFF770FF32
:102DC00083E7FFF76BFF2046FFF76AFF92E7FFF705
:102DD00065FF2046FFF764FFA0E7FFF75FFF20468F
:102DE000FFF75EFFAFE710BD1A4A036890420AD0B2
:102DF000B0F1804F07D0A2F59432904203D002F593
:102E00008062904215D14A6823F070031343114A3F
:102E100090420AD0B0F1804F07D0A2F59432904290
:102E200003D002F58062904203D1CA6823F4407354
:102E300013434A6923F08003134303608B68C36222
:102E40000B688362034B984204BF0B690363012341
:102E500043617047002C014010B50446A0B190F8C2
:102E60003D3003F0FF021BB980F83C2000F080FDEC
:102E70000223206884F83D30211DFFF7B5FF0123B0
:102E8000002084F83D3010BD012010BD90F83C308A
:102E900010B5012B4FF0020318D080F83D300368C5
:102EA0000C685A68496822F070025A605A682243D6
:102EB0005A609A6822F080029A609A680A439A607F
:102EC000012380F83D30002380F83C30184610BDC7
:102ED000704770472DE9F0470568C2682B690169A2
:102EE00023F4405313432B618368EA680B43416921
:102EF00022F4B05222F00C020B431343EB606B69D7
:102F0000826923F4407313436B61404B81469D42B9
:102F10004FF0190446D1FFF7EDFD04FB00F3D9F89B
:102F200004604FF06408B600B3FBF6F3B3FBF8F3AC
:102F30001E01FFF7DFFD6043D9F804309B00B0FBB2
:102F4000F3F7FFF7D7FD6043D9F804309B00B0FBDF
:102F5000F3F3B3FBF8F308FB13731B013233B3FB3A
:102F6000F8F303F0F007FFF7C5FD6043D9F804203C
:102F70009200B0FBF2FAFFF7BDFD6043D9F80430D0
:102F80009B00B0FBF3F3B3FBF8F308FB13A31B01A7
:102F90003233B3FBF8F303F00F033B433344AB602E
:102FA000BDE8F087FFF796FD04FB00F3D9F8046055
:102FB0004FF06408B600B3FBF6F3B3FBF8F31E0161
:102FC000FFF788FD6043D9F804309B00B0FBF3F7AE
:102FD000FFF780FD6043D9F804309B00B0FBF3F3AA
:102FE000B3FBF8F308FB13731B013233B3FBF8F3A5
:102FF00003F0F007FFF76EFD6043D9F8042092005C
:10300000B0FBF2FAFFF766FDB7E700BF00380140FA
:10301000F8B504460E4617461D4621680B6836EA89
:10302000030301D10020F8BD6B1CF7D095B92368CC
:103030000320DA6822F4D072DA605A6922F00102C1
:103040005A61202384F8393084F83A30002384F818
:103050003830F8BDFFF758F9C01B8542DDD2E6E7EE
:1030600010B5044640B390F8393003F0FF021BB9A5
:1030700080F8382000F09AFC2423226884F8393044
:10308000D368204623F40053D360FFF723FF23685F
:1030900000201A6922F490421A615A6922F02A0229
:1030A0005A61DA6842F40052DA602023E06384F85F
:1030B000393084F83A3010BD012010BD2DE9F041BF
:1030C0001F4690F839300446202B0D4690464ED1CD
:1030D000002949D0002A47D090F83830012B46D03B
:1030E000012380F838300023C363212380F839306E
:1030F000FFF70AF90646A4F82480A4F82680E38C9A
:103100009BB26BB93B46324640212046FFF780FF19
:10311000A8B9202384F8380084F83930BDE8F0815C
:10312000E38C3246013B9BB2E384A3688021B3F574
:10313000805F20463B460ED1FFF76AFF10B10320A7
:10314000BDE8F0812B882268C3F30803536023692C
:1031500043B90235D3E7FFF75BFF0028EFD12368BF
:103160002A785A600135CAE70120BDE8F0810220C3
:10317000BDE8F08180B483B000AF786039607B68CF
:10318000064A1A607B68054A5A607B683A689A600A
:103190007B6818460C37BD4680BC7047000080BF76
:1031A00080B485B000AFF860B9607A60FB68BA6837
:1031B0001A60FB687A685A60FB6800229A60FB68B4
:1031C00018461437BD4680BC7047000080B483B0F9
:1031D00000AF78607B68064A934204D1054B1B68B8
:1031E0000133044A136000BF0C37BD4680BC7047F2
:1031F00098060020D806002080B582B000AF72B6D5
:103200000F4B1B687B600F4B1B685B6A3B6062B6B1
:103210007B681B041A463B6813441846FDF7E6FC1E
:1032200003464FF081411846FDF738FD0346184626
:10323000FDF7FAFE034618460837BD4680BD00BFBD
:10324000D80600209806002080B586B000AFF86050
:103250007B600B467B8113467B727B891946F8683D
:10326000FFF7B2F903461A467B7A934214BF012353
:103270000023DBB2002B0BD0FFF7BEFF02463B6AF8
:10328000D31A7B617A697B689A42E6D3002300E017
:10329000012318461837BD4680BD80B588B002AFFF
:1032A000F8607B600B467B8113467B72FFF7A4FFBF
:1032B00078617B7A002B0CBF01230023DBB21A4616
:1032C00079897B6900937B68F868FFF7BDFF034647
:1032D00083F00103DBB2002B01D000232DE07A7ACA
:1032E00079897B6900937B68F868FFF7ADFF034637
:1032F00083F00103DBB2002B01D000231DE0FFF7B8
:103300007BFF38617B7A002B0CBF01230023DBB2EB
:103310001A4679897B6900937B68F868FFF794FF08
:10332000034683F00103DBB2002B01D0002304E04D
:10333000FFF762FF02463B69D31A18461837BD46AD
:1033400080BD000080B584B000AF03460A46FB7123
:103350001346BB71BB791846FDF748FC0346FB607A
:103360004FF07E51F868FDF74BFE0346002B06D068
:103370000A49F868FDF746FD0346FB60F0E7FB7974
:103380001846FDF733FC0346F9681846FDF77EFB47
:10339000034618461037BD4680BD00BF00002041DF
:1033A00080B584B000AFF860B9601346FB80FB685D
:1033B000BA681A60FB68FA889A80FB681B68002B61
:1033C00001D100F0ADFAFB6818461037BD4680BD4C
:1033D000B0B590B002AF7860396007F114030022F5
:1033E0001A605A609A60DA603B6818683B689B888C
:1033F00000221946FFF7EEF83B689B887B610123AA
:10340000BB610023FB6103233B623B681B6807F140
:10341000140211461846FEF7F7FF1220FEF77AFF56
:103420000023BB610123FB613B681B6807F11402A9
:1034300011461846FEF7E8FF3B6818683B68998814
:1034400064230022FFF729FF03463B633B6B4A2BB3
:1034500004D801217868FFF78DFE84E03B681C6882
:103460003B689D88FFF7C8FE034600936423002253
:1034700029462046FFF7E8FE034683F00103DBB24E
:10348000002B04D002217868FFF774FE6BE007F18F
:103490000C0300221A601A71002387F8373097F85E
:1034A0003730272B37DC3B6818683B6899888C23BA
:1034B0000122FFF7F2FE03463B633B6B002B04D176
:1034C00003217868FFF756FE4DE03B6B3C2B1CD97F
:1034D00097F83730DB08DBB2FB6297F83730DB4315
:1034E00003F00703BB6207F10C02FB6A13441A786E
:1034F0000121BB6A01FA03F3DBB21343D9B207F12E
:103500000C02FB6A13440A461A7097F837300133ED
:1035100087F83730C3E73A7B7B7B1344DAB2BB7B57
:103520001344DAB2FB7B134487F827303B7C97F8CF
:1035300027209A4204D004217868FFF71BFE12E08E
:10354000BB7BFA7B11461846FFF7FCFE04463B7B2B
:103550007A7B11461846FFF7F5FE03461A462146C8
:103560007868FFF71DFE78683837BD46B0BD0000AB
:10357000B0B59AB004AFFEF7A9FE00F0B5F800F0C0
:103580008FF900F05FF900F0FFF84E48FFF7C2FA3C
:1035900007F140034FF480624B491846FFF700FFE4
:1035A0003B4640220021184600F0ECFA3B46402200
:1035B0000021184600F0E6FA4FF4FA60FEF7AAFE82
:1035C00007F1480307F1400211461846FFF700FFD4
:1035D00007F148037B657B6D9B68002B17D17B6DE2
:1035E0001B681846FCF720FF04460D467B6D5B68A0
:1035F0001846FCF719FF02460B463846CDE9022370
:10360000CDE90045314A402100F0C4FA51E07B6D1C
:103610009B68012B0CD13B462D4A1C4615460FCD0D
:103620000FC40FCD0FC40FCD0FC42B68237040E023
:103630007B6D9B68022B0CD13B46264A1C461546E7
:103640000FCD0FC40FCD0FC40FCD0FC42B68238037
:103650002FE07B6D9B68032B0CD13B461E4A1C461A
:1036600015460FCD0FC40FCD0FC495E8070084E8B1
:1036700007001EE07B6D9B68042B0AD13B46174A6E
:103680001C4615460FCD0FC40FCD0FC42B682380E9
:103690000FE07B6D9B68052B0BD13B46104A1C4607
:1036A00015460FCD0FC40FCD0FC495E8030084E875
:1036B000030039464FF47A7340220A48FFF7FEFCB4
:1036C00074E700BF98060020000C0140606A000803
:1036D000806A0008B46A0008E86A0008146B0008F1
:1036E000386B0008DC06002080B590B000AF07F111
:1036F000180328220021184600F044FA3B1D00223E
:103700001A605A609A60DA601A610123BB614FF453
:103710008033FB6100233B620123BB6202237B6396
:103720004FF48033BB634FF4E013FB6307F11803DE
:103730001846FEF755FF0346002B14BF0123002354
:10374000DBB2002B01D000F0EBF80F237B600223EB
:10375000BB600023FB604FF480633B6100237B610F
:103760003B1D02211846FFF703F90346002B14BF47
:1037700001230023DBB2002B01D000F0D1F800BF01
:103780004037BD4680BD000080B586B000AF07F170
:10379000080300221A605A609A60DA603B460022F1
:1037A0001A605A60254B264A1A60244B4FF49072D7
:1037B0005A60224B00229A60204B4FF6FF72DA606B
:1037C0001E4B00221A611D4B00229A611B48FFF715
:1037D00043FB0346002B14BF01230023DBB2002B65
:1037E00001D000F09DF84FF48053BB6007F108034F
:1037F00019461248FFF799F90346002B14BF01231D
:103800000023DBB2002B01D000F08AF800233B60DC
:1038100000237B603B4619460848FFF737FB034609
:10382000002B14BF01230023DBB2002B01D000F0DA
:1038300077F800BF1837BD4680BD00BF980600204E
:103840000004004080B500AF134B144A1A60124BBD
:103850004FF4E1325A60104B00229A600E4B002266
:10386000DA600D4B00221A610B4B0C225A610A4B95
:1038700000229A61084B0022DA610748FFF7F0FB4B
:103880000346002B14BF01230023DBB2002B01D021
:1038900000F046F800BF80BDDC0600200038014083
:1038A00080B586B000AF07F1080300221A605A60A5
:1038B0009A60DA60184A184B9B6943F020039361C1
:1038C000154B9B6903F020037B607B68124A124B07
:1038D0009B6943F0080393610F4B9B6903F0080356
:1038E0003B603B6801224FF480610C48FEF772FE9A
:1038F0004FF48063BB600123FB6000233B61032323
:103900007B6107F1080319460448FEF77DFD00BFFF
:103910001837BD4680BD00BF00100240000C0140BA
:1039200080B400AF00BFBD4680BC70470E4B82B074
:103930009A6942F001029A619A6902F001020092CA
:10394000009ADA6942F08052DA61DB69074A03F0D3
:1039500080530193019B536823F0E06343F00073AD
:10396000536002B0704700BF0010024000000140E9
:1039700007B50D4B02689A4212D103F50333DA6999
:103980001D2042F00202DA610022DB69114603F0D9
:1039900002030193019BFEF7E1FC1D20FEF712FDDF
:1039A00003B05DF804FB00BF0004004010B50446FE
:1039B00086B01022002102A800F0E4F82268174B1C
:1039C0009A4228D103F558439A6902A942F48042E9
:1039D0009A619A69124802F480420092009A9A69A8
:1039E00042F004029A619B6903F004030193019B76
:1039F0004FF4007302930223039303230593FEF70E
:103A000003FD4FF480630293002302A9044803934B
:103A10000493FEF7F9FC06B010BD00BF003801406A
:103A2000000801407047FEE7FEE7FEE7FEE770474B
:103A300070477047FEF75CBC0148FFF733B900BF21
:103A4000980600200120704708B500F071F8162391
:103A500003604FF0FF3008BD08B500F069F8162389
:103A60000360FEE708B50A4B0246196809B909491F
:103A700019606946186802448A4206D900F058F86D
:103A80000C2303604FF0FF3008BD1A6008BD00BF73
:103A90001C070020680700200F4B1A6842F0010243
:103AA0001A6059680D4A0A405A601A6822F08472F6
:103AB00022F480321A601A6822F480221A605A684E
:103AC00022F4FE025A604FF41F029A604FF0006227
:103AD000034B9A60704700BF001002400000FFF8DF
:103AE00000ED00E0002103E00B4B5B584350043134
:103AF0000A480B4B42189A42F6D30A4A02E00023C6
:103B000042F8043B084B9A42F9D3FFF7C5FF00F097
:103B100015F8FFF72DFD7047646F000800000020C6
:103B20007C0600207C06002068070020FEE70000DD
:103B3000014B1868704700BF0C00002070B50025CD
:103B40000C4E0D4CA41BA410A54209D102F074FF29
:103B500000250A4E0A4CA41BA410A54205D170BD35
:103B600056F8253098470135EEE756F82530984746
:103B70000135F2E75C6F00085C6F00085C6F0008BD
:103B8000606F000803460244934200D1704703F877
:103B9000011BF9E70CB430B5174B0C1E9DB01D6826
:103BA00008DA8B234FF0FF302B601DB0BDE83040AA
:103BB00002B070474FF40273ADF814300CBF2346C7
:103BC00004F1FF33049307934FF6FF7302900690BE
:103BD000ADF81630209A21AB02A92846019300F0D7
:103BE0000DF8431CBCBF8B232B60002CDDD00022C2
:103BF000029B1A70D9E700BF0C0000202DE9F04F9E
:103C0000BFB0894615461F46824601F029FE03686B
:103C100018461193FCF79CFAB9F80C300A901B0671
:103C200018D5D9F81030ABB94021504601F02EFE1E
:103C3000C9F80000C9F8100048B90C23CAF80030D0
:103C40004FF0FF330B930B983FB0BDE8F08F40234C
:103C5000C9F8143000232EAC2194239322930995A4
:103C600007930D930E93159314930B931293139341
:103C7000099D2B4613F8012B12B1252A40F08380B1
:103C8000099BEE1A0DD084E84800239B334423930C
:103C9000229B0133072B229377DC08340B9B3344A0
:103CA0000B932B78002B00F025870023691C1A4604
:103CB0004FF0FF3B1D460A208DF867300C934E1CD9
:103CC00009780996069106992039582900F214843A
:103CD000DFE811F0A50012041204AA001204120475
:103CE0001204120412041204AD0065001204B5009F
:103CF000B8001204D500D800D800D800D800D800E9
:103D0000D800D800D800D8001204120412041204FB
:103D10001204120412041204120412040C012201EF
:103D2000120422011204120412041204EB00120401
:103D300012043C0312041204120412041204A40319
:103D40001204120485001204120412041204120454
:103D500012041204120412041204FE006B00220169
:103D600022012201EE006B0012041204F100120481
:103D70001E033E037203F800120483031204A60319
:103D800012041204BE031D4673E721AA4946504699
:103D900002F090FA002840F08E862EAC7EE70123D8
:103DA0002B2209998BE70F46FBE70BB18DF86720B3
:103DB000AE0640F1A180073727F0070707F1080397
:103DC0000893D7E90067002E77F1000305DA2D2369
:103DD000764267EB47078DF867300123C7E20BB1E6
:103DE0008DF86720A04B1593AB0640F1368307375B
:103DF00027F0070707F108030893D7E90067E807EA
:103E00000BD556EA070308D030238DF868309DF8AB
:103E1000183045F002058DF869300223A4E2002A2B
:103E2000BFD101232022BCE745F00105B9E73E6878
:103E3000391D002E0C96B6DA0F4676420C9645F0E8
:103E40000405AEE709994E1C09782A29069110D07D
:103E50004FF0000B09960699303909293FF633AF28
:103E600000FB0B1B09990E4616F8011B06910996DB
:103E7000F1E73968099641EAE17B043791E745F0BB
:103E800080058EE700210C9106990C9E303900FBCD
:103E900006110C9109990E4616F8011B0691069918
:103EA000099630390929EFD90DE745F0080578E77B
:103EB00045F0400575E7099909786C2905D10999FC
:103EC0000131099145F020056BE745F0100568E7E1
:103ED00000263B1D08933B688DF867608DF8903095
:103EE0004FF0010B37460DF190081CE10BB18DF836
:103EF000672045F010055BE715F0100F07F104038C
:103F000003D03E680893F7175DE73E6815F0400F51
:103F1000089318BF36B2F6E70BB18DF86720073764
:103F200027F0070707F1080308933B684FF0FF32BB
:103F30000D937B680D9F0E930E9B384623F0004631
:103F400031464A4BFCF75EFD002840F0DC854FF01F
:103F5000FF32464B38463146FCF736FD002840F02C
:103F6000D285129A139B0D980E99FCF723FD10B180
:103F70002D238DF867303E4B3E4A06994FF0030BD8
:103F80004729CCBF90469846002625F08005374645
:103F9000C9E0BBF1FF3F26D0069B23F02003472B4F
:103FA00004D1BBF1000F08BF4FF0010B45F4807343
:103FB00017930E9B1F1E0D9BA8BF10970F93BDBF9D
:103FC0003B4603F1004310930023B8BF2D23169303
:103FD000069B23F02007462F08D0452F42D10BF136
:103FE0000106022304E04FF0060BDFE75E460323E1
:103FF0001FAA04921CAA03921BAA02928DE84800F1
:104000000F9A109B504600F057FE472F804602D172
:10401000E80740F1858508EB0603462F079311D189
:1040200098F80030302B09D1129A139B0F981099F1
:10403000FCF7B6FC10B9C6F101061B96079A1B9B4C
:104040001A440792129A139B0F981099FCF7A8FC38
:1040500090B930221F9B079999420FD9591C1F9183
:104060001A70F7E75E46BCE7886B0008FFFFEF7F3A
:10407000786B00087C6B0008079B1F931F9B472FE2
:10408000A3EB0803079340F000811B9BD91C02DBC4
:104090009B4580F22681069B023B06931B9A9DF866
:1040A0001810531E002BA8BF2B221B93BCBFC2F1BC
:1040B00001032D22092B8DF874108DF8752040F323
:1040C00000810A260DF1830293FBF6F006FB103304
:1040D000092803F1300302F8013C02F1FF310346E5
:1040E00000F3E880303301F8013C023A0DF1760329
:1040F0000DF1830082421946C0F0DE80079A1DABA5
:10410000CB1A012A149303EB020B02DC15F0010712
:1041100002D000270A9B9B44169B13B12D238DF8D8
:1041200067300026179D5E453346B8BF5B460F9348
:104130009DF8673013B10F9B01330F9315F0020305
:1041400016931EBF0F9B02330F9315F08403179332
:1041500018D10C9B0F9A9B1A002B109312DD109B09
:10416000102BAB4B236000F3D981109B109A636036
:10417000239B13442393229B0133072B229300F3A9
:10418000E68108349DF8673073B10DF16703236051
:1041900001236360239B01332393229B0133072B6D
:1041A000229300F3DE810834169B6BB11AAB2360B7
:1041B00002236360239B02332393229B0133072B4B
:1041C000229300F3D8810834179B802B18D10C9BC5
:1041D0000F9A9B1A002B109312DD109B102B8D4B06
:1041E000236000F3D281109B109A6360239B1344D9
:1041F0002393229B0133072B229300F3DF810834A2
:10420000A6EB0B06002E0FDD824B102E236000F371
:10421000DF81229B239801336660072B0644239697
:10422000229300F3EC810834EB0500F1F281239B2B
:1042300084E800095B442393229B0133072B2293DC
:1042400040F3198421AA4946504602F033F8002869
:1042500040F031842EAC6B0700F110840B9B0C9A5C
:104260000F998A42ACBF9B185B180B93239B3BB101
:1042700021AA4946504602F01DF8002840F01B8450
:104280000023089F22932EACF2E4069B652B7FF758
:1042900005AF069B662B24D11B9B002B19DDBBF1C0
:1042A000000F01D1EA0702D50A9A13445B441B9F11
:1042B0009B4631E70A4607E712F8011B03F8011B8A
:1042C00018E7302213448DF876208DF877301EA938
:1042D00014E7BBF1000F01D1EB0715D50A9B0133A1
:1042E000E4E71B9A079B9A4206DBEF070ED50A9B71
:1042F000134467220692DAE7079B0A99002A0B44C7
:10430000F7DCC2F10102F3E70123D0E71346F0E73F
:104310000BB18DF8672015F0200F07F1040308D0CA
:104320000B993A68CE1708463146C2E900011F468C
:104330009EE4EE0603D53A680B991160F7E768062C
:10434000F9D53A68BDF82C101180F0E745F010055A
:1043500015F0200322D0073727F0070707F10803DD
:104360000893D7E90067002300228DF86720BBF18E
:10437000FF3F00F0DB8325F080020F9256EA070230
:1043800040F0D983BBF1000F00F0AA80012B76D05A
:10439000022B00F0918000260027D2E33A1D15F091
:1043A0001001089202D03E680027DDE715F04003B7
:1043B000F9D03E880027D6E73B1D089330237822AA
:1043C0008DF86830144B3E681593002745F00205C0
:1043D0008DF8692002230692C6E700263B1DBBF13B
:1043E000FF3F0893D7F800808DF867600AD05A46DF
:1043F0003146404601F056FC002800F08D80A0EBCD
:10440000080BC4E54046FBF7A3FE8346BFE500BFAB
:10441000AC6B0008BC6B0008996B000845F01005F8
:10442000A90609D5073727F0070707F108030893FE
:10443000D7E90067012397E73B1D15F0100F08939C
:1044400001D03E6802E06A06FBD53E880027F1E70E
:104450000BB18DF86720A34BC5E43B1D15F0100F81
:10446000089301D03E6802E06E06FBD53E88002727
:10447000C5E4434666E3002F08BF0A2E05D2303656
:104480000DF1F80808F8416D77E30DF1B8083046F2
:1044900039460A220023FCF7E7FD303208F8012DE7
:1044A0000023304639460A22FCF7DEFD06460F4659
:1044B00056EA0703EBD160E3002600270DF1B808A8
:1044C000159A06F00F03D35C3A0908F8013D330949
:1044D00043EA07731E46174656EA0703F0D14CE33A
:1044E0003BB9EA0705D530230DF1F80808F8413D3E
:1044F00043E30DF1B80840E30BB18DF86720069B4C
:10450000002B00F0F78200269DF818308DF86760C8
:104510008DF890300897E3E4064638E51023636091
:10452000239B10332393229B0133072B229304DC1C
:104530000834109B103B109311E621AA49465046BF
:1045400001F0B8FE002840F0B6822EACF1E721AAB7
:104550004946504601F0AEFE002840F0AC822EAC39
:1045600010E621AA4946504601F0A4FE002840F07A
:10457000A2822EAC18E621AA4946504601F09AFEC6
:10458000002840F098822EAC1EE610236360239B27
:1045900010332393229B0133072B229304DC08342E
:1045A000109B103B109318E621AA4946504601F093
:1045B00081FE002840F07F822EACF1E721AA494617
:1045C000504601F077FE002840F075822EAC17E6C9
:1045D00010236360239B10332393229B0133072B0B
:1045E000229302DC0834103E0EE621AA49465046CA
:1045F00001F060FE002840F05E822EACF3E721AAB5
:104600004946504601F056FE002840F054822EAC38
:104610000AE6069B652B40F3A981129A139B0D981D
:104620000E99FCF7BDF9002862D02F4B23600123BF
:104630006360239B01332393229B0133072B229337
:1046400025DC08341B9B079A934202DBEE077FF5BB
:1046500002AE119B0A9A23600A9B6360239B13445A
:104660002393229B0133072B22931ADC0834079BE8
:104670005E1E002E7FF7EFAD4FF010081B4F102E7F
:10468000276018DC6660239B1E442396D4E521AA8C
:104690004946504601F00EFE002840F00C822EAC38
:1046A000D0E721AA4946504601F004FE002840F018
:1046B00002822EACDBE7239BC4F8048010332393E3
:1046C000229B0133072B229302DC0834103ED6E7ED
:1046D00021AA4946504601F0EDFD002840F0EB814B
:1046E0002EACF3E7996B0008AA6B0008BC6B0008BE
:1046F0001B9B002B7ADC9B4B236001236360239B75
:1047000001332393229B0133072B229344DC08348B
:104710001B9B23B9079B13B9E8077FF59CAD119B41
:104720000A9A23600A9B6360239B13442393229B72
:104730000133072B229339DC04F108031B9E002E62
:1047400019DA1024884F7642102E1F6038DC239A25
:104750005E601644229A23960132072A03F1080369
:10476000229208DD21AA4946504601F0A3FD002807
:1047700040F0A1812EAB079A07995A60239AC3F89B
:1047800000800A442392229A0132072A22923FF79C
:1047900059AD03F108045EE521AA4946504601F0EF
:1047A00089FD002840F087812EACB1E721AA494657
:1047B000504601F07FFD002840F07D812EABBDE723
:1047C000239A5C6010322392229A0132072A2292A5
:1047D00002DC0833103EB7E721AA4946504601F0F3
:1047E00069FD002840F067812EABF3E7079BBB42D1
:1047F000A8BF3B46002B1E460BDD6360239BC4F81D
:10480000008033442393229B0133072B22935FDCE8
:104810000834002EB4BF3E46BE1B002E0FDDDFF86D
:1048200048B1102EC4F800B05CDC239B66601E44C7
:10483000229B23960133072B22936ADC08341B9BAF
:10484000079A934201DBE9070DD5119B0A9A236071
:104850000A9B6360239B13442393229B0133072B02
:10486000229360DC0834079B079ADE1B1B9BD31A3C
:104870009E42A8BF1E46002E0BDD239B47443344B7
:104880002393229B27600133072B6660229354DC1D
:1048900008341B9B079A002EA2EB0303B4BF1E46ED
:1048A0009E1B002E7FF7D7AC4FF010082E4F102E16
:1048B00027607FF7E7AE239BC4F80480103323936F
:1048C000229B0133072B229341DC0834103EEEE794
:1048D00021AA4946504601F0EDFC002840F0EB804B
:1048E0002EAC96E710236360239B10332393229B07
:1048F0000133072B229302DC0834103E91E721AAF2
:104900004946504601F0D6FC002840F0D4802EAC39
:10491000F3E721AA4946504601F0CCFC002840F0BC
:10492000CA802EAC8BE721AA4946504601F0C2FC52
:10493000002840F0C0802EAC95E721AA4946504699
:1049400001F0B8FC002840F0B6802EACA1E721AA07
:104950004946504601F0AEFC002840F0AC802EAC39
:10496000B4E700BFAA6B0008BC6B0008079B012BD3
:1049700001DCEA0776D501236360239BC4F800803D
:1049800001332393229B0133072B229336DC083417
:10499000119B0A9A23600A9B6360239B1344239311
:1049A000229B0133072B229331DC0834139B129A8C
:1049B0000D980E99FBF7F4FF079B5E1E00282FD180
:1049C00008F1010384E84800239B079A013B134444
:1049D0002393229B0133072B22934ADD21AA4946C8
:1049E000504601F067FC002865D12EAC1DAB23605A
:1049F000149B149A6360239B13441CE421AA494628
:104A0000504601F057FC002855D12EACC0E721AA32
:104A10004946504601F04EFC00284CD12EACC5E76B
:104A2000002EE3DD4FF01008584F102E276004DCF5
:104A3000239B66601E442396CBE7239BC4F8048027
:104A400010332393229B0133072B229302DC08347B
:104A5000103EEAE721AA4946504601F02BFC50BB24
:104A60002EACF5E701236360239BC4F8008001337B
:104A7000AEE70834BAE70834FFF7EDBB0C9B0F9A9A
:104A80009D1A002D7FF7EAAB1026414B102D2360B5
:104A90001BDC239B65601D44229B23950133072B60
:104AA00022937FF7DBAB21AA4946504601F002FC76
:104AB00000283FF4D3ABB9F80C3013F0400F0B9B38
:104AC00018BF4FF0FF33FFF7BDB8239B666010336C
:104AD0002393229B0133072B229302DC0834103DE1
:104AE000D3E721AA4946504601F0E4FB0028E2D171
:104AF0002EACF4E7239B002BDDD021AA494650467B
:104B000001F0D8FBD7E70D9A0E9B0D980E99FBF795
:104B100079FF00283FF43DAA1E4B1F4AFFF72DBA2C
:104B20001F9BA3EB08030793FFF7AFBA56EA0702F0
:104B30000F953FF42BAC012B3FF49DAC022B3FF4BF
:104B4000BDAC2EABF10841EA4771F80806F0070248
:104B500007460E46303256EA070103F1FF3803F8E4
:104B6000012C7FF486AC0F99C90706D5302A04D0F2
:104B7000302208F8012CA3F102082EAB5E460F9DEF
:104B8000A3EB080B0027FFF7CEBA00BFBC6B0008F1
:104B9000AC6B0008806B0008846B00082DE9F74FB0
:104BA00003690C6980469C4200F38280013C01F15C
:104BB000140700F1140657F8245056F82400013564
:104BC000B0FBF5F54FEA840E06EB0E0307EB0E097A
:104BD00001938DB34FF0000A3846B446D34650F8DF
:104BE000042B93B205FB03A3120C4FEA134A05FBF7
:104BF00002A29BB2ABEB0303BCF800B04FEA124A2F
:104C00005B441FFA82FBDCF800208145CBEB1242AB
:104C100002EB23429BB243EA02434FEA224B4CF899
:104C2000043BDCD256F80E3033B9019B043B9E4264
:104C30001A4631D3C8F81040404601F062FA002805
:104C400026DB30464FF0000E013557F8041BD0F834
:104C500000C08BB2AEEB03031FFA8CF213440A0CB4
:104C6000C2EB1C4202EB23429BB243EA0243B9452A
:104C70004FEA224E40F8043BE7D256F8242006EBD8
:104C800084032AB9043B9E421A460BD3C8F810404D
:104C9000284603B0BDE8F08F1268043B002AC9D152
:104CA000013CC4E71268043B002AEFD1013CEAE76B
:104CB0000020EEE7000000002DE9F04F466A95B0B5
:104CC0000446219DCDE902233EB9102000F0D6FD17
:104CD0006062466086600660C660636A196851B1AA
:104CE0005A68012393404A608B60204601F034F8F3
:104CF0000022636A1A60039B002BB7BF01230023C5
:104D00002B60039BAEBF2B6023F000430393DDF8C1
:104D10000C90AB4B33EA09031BD142F20F73209A7C
:104D20001360029B23B9C9F31300002800F08385A8
:104D3000229B53B9A34B21E0A34B06930833229A3D
:104D40001360069815B0BDE8F08F9E4B06930333B1
:104D5000F5E7DDE902670022002330463946FBF71C
:104D60001FFE804660B10123209A1360229B002B16
:104D700000F05E85954B229A1360013B0693E0E7B5
:104D800012AB019313AB009332463B46204601F031
:104D900031FAC9F30A558246002D7DD03046C7F35B
:104DA000130343F07F5141F44011A5F2FF35CDF8D4
:104DB00040800022864BFBF7D7F97BA3D3E9002381
:104DC000FBF786FB7AA3D3E90023FBF7CFF906466E
:104DD00028460F46FBF716FB77A3D3E90023FBF722
:104DE00077FB02460B4630463946FBF7BFF90646CD
:104DF0000F46FBF71DFE002283460023304639464E
:104E0000FBF7D8FD58B15846FBF7FCFA02460B46B3
:104E100030463946FBF7C4FD08B90BF1FF3BBBF147
:104E2000160F58D8DDE902236A4901EBCB01D1E91D
:104E30000001FBF7DDFD00284FD000230BF1FF3B05
:104E40000D93129B5D1B6B1E079343BF0023C5F19F
:104E5000010807934FF00008BBF1000F3FDB079BF1
:104E6000CDF830B05B440793002308931E9B092BB9
:104E700000F2B480052BC4BF043B1E931E9BC8BF29
:104E80000026A3F10203D8BF0126032B00F2B28053
:104E9000DFE803F084862D78139B129D1D4405F2F4
:104EA0003243202B11DD029A05F21240C3F1400378
:104EB00022FA00F009FA03F31843FBF793FA0123EF
:104EC000A1F1F871013D109373E7C3F12000029B3B
:104ED00003FA00F0F1E70123B2E70D90B1E7CBF15F
:104EE000000308930023A8EB0B080C93BEE70123F3
:104EF00009931F9B002B40F3808099460493002266
:104F00000421656A6A6001F114029A427AD96968DB
:104F1000204600F0EDFE636A28601B68B9F10E0FB1
:104F2000069300F2F080002E00F0ED80DDE9022310
:104F3000BBF1000FCDE90E2379DD264A0BF00F03FC
:104F40004FEA2B1602EBC303F006D3E90023CDE9A9
:104F50000A235CD5DDE90E011F4B0325D3E90823A5
:104F6000FBF7E0FBCDE9020106F00F061A4F002E19
:104F70004FD1DDE90A23DDE90201FBF7D3FBCDE9DF
:104F800002016EE0012309931F9B5B4403F10109B9
:104F900004934B46012BB8BF0123B0E70023A7E7DA
:104FA0000023F0E7AFF3008061436F63A787D23F30
:104FB000B3C8608B288AC63FFB799F501344D33F08
:104FC0000000F07FD56B0008CC6B0008AB6B0008CD
:104FD0000000F83F086C0008E06B00080126002381
:104FE00009961E934FF0FF33002204939946122333
:104FF0001F9284E701230993F4E701230493994660
:105000001A46F5E76A68490001326A607BE70225C3
:10501000ACE7F10708D5DDE90A01D7E90023FBF782
:1050200057FACDE90A010135761008379FE700F0FD
:10503000A580DDE90E01CBF10006A24B06F00F02C0
:1050400003EBC203D3E90023FBF742FA0225002356
:10505000CDE902019C4F3611002E40F08480002BD8
:105060008DD10D9B002B00F08B80DDE90223CDE973
:105070000A23DDE90A010022944BFBF79BFC002880
:105080007ED0B9F1000F7BD0049B002B37DDDDE92A
:105090000A0100228E4BFBF71BFACDE90201049EA8
:1050A0000BF1FF3701352846FBF7ACF9DDE90223A8
:1050B000FBF70EFA874B0022FBF758F8CDE90A01FF
:1050C0000B9BA3F150750B95002E5CD1DDE902011D
:1050D0000022814BFBF748F80A9A2B46CDE90201E2
:1050E000FBF786FC002840F0F782DDE902010A9A0E
:1050F00005F10043FBF75EFC002840F0EB82DDE9A0
:105100000E23CDE90223139B002BC0F25081BBF18B
:105110000E0F00F34C816B4B03EBCB03D3E9002361
:10512000CDE904231F9B002B80F2DA80B9F1000F38
:1051300000F3D68040F0CD82DDE904010022664B09
:10514000FBF7C6F9DDE90223FBF748FC4E464F4664
:10515000002840F0A482069B069A5D1C31230BF1C7
:10516000010B13709FE2F20705D5D7E90023FBF787
:10517000AFF901230135761008376DE7022570E796
:105180005F464E468FE7069A4E4B32441192099A7B
:10519000711E002A48D003EBC103D3E9002300208D
:1051A0004E49FBF7BFFADDE90A23FAF7DDFFCDE947
:1051B0000A01069DDDE90201FBF73AFC0646FBF712
:1051C00021F902460B46DDE90201FAF7CDFFDDE9E0
:1051D0000A23303605F8016BCDE90201FBF7EAFB43
:1051E000002864D1DDE9022300203849FAF7BCFF2A
:1051F000DDE90A23FBF7DEFB002840F0B980119BB4
:105200009D423FF47CAFDDE90A010022304BFBF701
:105210005FF90022CDE90A01DDE902012C4BFBF721
:1052200057F9CDE90201C5E703EBC101D1E900015E
:10523000DDE90A23FBF74CF9CDE90A01069DDDE91A
:105240000201FBF7F5FB0646FBF7DCF802460B46CE
:10525000DDE90201FAF788FF3036119B05F8016B92
:10526000AB42CDE902014FF0000224D11B4BDDE936
:105270000A01FAF77BFF02460B46DDE90201FBF764
:10528000B7FB002874D1DDE90A2300201349FAF79F
:105290006BFF02460B46DDE90201FBF78BFB0028A2
:1052A0003FF42DAF15F8013C6A1E302B01D0BB46F0
:1052B0004DE01546F6E7064BFBF70AF9CDE902018A
:1052C000BDE700BF086C0008E06B00080000F03F7D
:1052D0000000244000001C40000014400000E03F9B
:1052E000069DDDE90267DDE9042330463946FBF718
:1052F00019FAFBF79DFB8046FBF784F8DDE90423F0
:10530000FBF7E6F802460B4630463946FAF72CFF23
:1053100008F1300605F8016B069E0246AE1BB1454A
:105320000B4637D1FAF722FF06460F4602460B46D8
:10533000DDE90401FBF73EFBC8B9DDE904013246B3
:105340003B46FBF72DFB10B118F0010F0FD1514672
:10535000204600F001FD0023209A2B700BF1010381
:105360001360229B002B3FF4ECAC1D60E9E45F4628
:1053700015F8012C6B1E392A06D1069A9A4207D1DC
:1053800030231370134601371A7801321A708EE7F2
:105390001D46EDE70022B54BFBF79AF800220023EB
:1053A00006460F46FBF7FCFA00289CD0CFE7099A87
:1053B000002A00F029811E9A012A00F30E81109A1A
:1053C000002A00F0068103F233434546089E079AFF
:1053D00001211A4420469844079200F05DFD0746DB
:1053E000002D0BDD079B002B08DDAB42A8BF2B4631
:1053F000079AA8EB0308ED1AD31A0793089BFBB191
:10540000099B002B00F00481002E11DD3946324645
:10541000204600F0D7FD524601460746204600F0E0
:1054200044FD51460A90204600F096FC0A9B9A469D
:10543000089B9A1B04D05146204600F0C3FD8246CB
:105440000121204600F028FD0C9B0646002B40F36E
:10545000E1801A460146204600F0B4FD1E9B064638
:10546000012B40F3DA8000230893336906EB8303B2
:10547000186900F0C3FCC0F12000079B184410F02D
:105480001F0000F0F080C0F12003042B40F3E28005
:10549000079BC0F11C008044054403440793B8F106
:1054A000000F05DD51464246204600F0D9FD8246F8
:1054B000079B002B05DD31461A46204600F0D0FD43
:1054C00006460D9B002B00F0D3803146504600F07D
:1054D00018FE002880F2CC80002351460A22204684
:1054E00000F051FC099B0BF1FF3B8246002B00F0C2
:1054F000A981002339460A22204600F044FC049B7F
:105500000746002B03DC1E9B022B00F3B980002D05
:1055100005DD39462A46204600F0A2FD0746089BD5
:10552000002B00F010817968204600F0E1FB054671
:105530003A6907F10C01023292000C3000F0C0FB16
:1055400001222946204600F08BFD07970746029B63
:10555000DDF8188003F00103089331465046FFF749
:105560001DFB0799054600F13009504600F0C9FDC2
:105570003A4602903146204600F0DDFDC3680246FF
:10558000002B40F0E28001460990504600F0B9FD42
:105590000346099A11462046099300F0DDFB099B5A
:1055A000002B40F0D4801E9A002A40F0D080089A48
:1055B000002A40F0CC80B9F1390F00F0E880029B5E
:1055C000002B01DD05F1310908F1010588F8009093
:1055D0006BE0129BC3F13603F7E6089B09F1FF3637
:1055E000B342B7BF089B9E1BF21A0C9BBFBF089625
:1055F0009B180C930026B9F1000FB9BFA8EB090561
:10560000002345464B46E2E6089E4546099FE7E6ED
:10561000089A10E71E9B012B18DC029BB3B9039B71
:10562000C3F31303A3B9039B23F000431B0D1B0516
:105630002BB1079B08F1010801330793012308935D
:105640000C9B002B7FF411AF012016E70023F6E737
:10565000029BF4E73FF423AF079A1C331A449844A3
:105660001D4413461AE70346F6E700BF0000244036
:10567000B9F1000F33DC1E9B022B30DDCDF810900A
:10568000049B63B931460522204600F07CFB0146AD
:105690000646504600F035FD00283FF75CAD1F9BE5
:1056A000069D6FEA030B002307933146204600F066
:1056B00053FB002F3FF44BAE079B2BB1BB4203D0F3
:1056C0001946204600F048FB3946204600F044FBCE
:1056D0003DE600263746E2E7BB4637463BE5099BF9
:1056E000CDF81090002B7FF412AF069D3146504646
:1056F000FFF754FA069B00F1300905F8019B049A64
:10570000EB1A9A4200F38180069B012AACBF9B18DA
:10571000013398460023079351460122204600F0AA
:105720009FFC3146824600F0ECFC002834DC02D1BC
:1057300019F0010F30D1454615F8013C6A1E302B97
:10574000B3D11546F8E73846FFE6012322E7029A6F
:10575000002A04DB28D11E9A32BB089A22BB002BF8
:105760007FF732AF51460122204600F079FC3146E6
:10577000824600F0C6FC002805DC7FF425AF19F056
:10578000010F3FF421AFB9F1390F7FF41BAF39237B
:1057900008F1010808F8013C454615F8013C6A1E6D
:1057A000392B3AD001333FE0002B08F1010505DD2C
:1057B000B9F1390FEBD009F1010907E7069B049A0B
:1057C000EB1A9342A84605F8019CA5D05146002348
:1057D0000A22204600F0D7FA079B8246BB424FF0D0
:1057E0000A024FF000030799204604D100F0CBFADB
:1057F00007900746B1E600F0C6FA002307900A2298
:105800003946204600F0BFFAF3E7514600230A224A
:10581000204600F0B8FA824668E7069B934205D11D
:105820003123069A0BF1010B13703EE71546B4E7DE
:10583000094BFFF7A3BA229B002B7FF47DAA074BED
:10584000FFF79CBA049B002B3FF74FAF1E9B022B28
:105850007FF74BAF14E700BFAA6B0008CC6B0008C2
:10586000044B1B68186A044B002808BF1846F03028
:10587000704700BF0C00002010050020024B0146BD
:10588000186800F003B800BF0C0000202DE9F74FA6
:1058900001F10B04162C814607D934F0070405D515
:1058A0000C23C9F80030002631E110248C42F7D3D4
:1058B000484600F011FAB4F5FC7F9B4D36D204F156
:1058C00008022A445668A2F108018E424FEAD40326
:1058D00002D1D668B24210D07368F268B16823F082
:1058E0000303CA60334491605A6842F001025A606F
:1058F000484600F0F7F9083609E102338B4A2E6971
:10590000114696426DD0706820F00300071B0F2FE0
:1059100047DD331944F0010474606B612B61DA6078
:105920009A6047F001025A603750E1E7630A2AD0D3
:10593000042B12D8A30938335A1C05EBC20256684F
:10594000A2F10800864206D0726822F00302111B01
:105950000F291CDD013B0133D0E7142B01D85B3349
:10596000EAE7542B02D8230B6E33E5E7B3F5AA7FA1
:1059700002D8E30B7733DFE740F25452934204D866
:10598000A30C7C33D8E73F23D6E77E23D4E7002956
:10599000F16804DBB368D9608B60B318A4E70E46E6
:1059A000D0E7002F6A612A6105DB3044436843F089
:1059B000010343609CE7B0F5007F44D20122C00898
:1059C000871002FA07F76A6801303A436A6055F8AF
:1059D000307005EBC002083AF260B76045F83060FD
:1059E000FE6001209A1000FA02F26868824200F21A
:1059F0009F80024206D123F003035200024203F1CA
:105A00000403FAD005EBC30CE0469E46D8F80C60C0
:105A1000464553D10EF1010E1EF0030F08F10808A0
:105A2000F4D1980779D16B6823EA02036B60686848
:105A3000520082427CD8002A7AD073460242E1D1D9
:105A400004335200FAE7420A042A15D88209383290
:105A5000571C55F8377005EBC20EBE4526D1012004
:105A6000921000FA02F2686810436860C6F80CE011
:105A7000B760CEF80860B3E7142A01D85B32E7E7D5
:105A8000542A02D8020B6E32E2E7B2F5AA7F02D89E
:105A9000C20B7732DCE740F25457BA429ABF820C0D
:105AA0007C327E22D4E7BF68BE4504D07A6822F0FB
:105AB00003029042F7D3D7F80CE0D7E77068F76895
:105AC00020F00300A0EB040ABAF10F0F10DDB2685A
:105AD000331944F001047460D760BA604AF00102DF
